:020000040800F2
:1000000000500020192A000845160008471600086D
:10001000491600084B1600084D16000800000000A5
:100020000000000000000000000000004F16000863
:10003000511600080000000053160008551600086D
:10004000612A0008612A0008612A0008612A000864
:10005000612A0008612A0008612A0008612A000854
:10006000612A0008612A0008612A0008612A000844
:10007000612A0008612A0008612A0008612A000834
:10008000612A0008612A0008612A0008612A000824
:10009000612A0008612A0008612A0008612A000814
:1000A000612A0008612A0008612A0008612A000804
:1000B000612A0008612A0008612A0008612A0008F4
:1000C000612A0008612A0008612A0008612A0008E4
:1000D000612A00081513000841130008612A00086E
:1000E000612A0008612A0008612A00080000000057
:1000F0000000000000000000000000000000000000
:0C01000000000000000000005FF808F1A3
:10010C0010B5054C237833B9044B13B10448AFF345
:10011C0000800123237010BD4C080020000000005B
:10012C00B83B000808B5034B1BB103490348AFF3B8
:10013C00008008BD0000000050080020B83B0008FB
:10014C004FF0FF0C1CEAD0521EBF1CEAD15392EAAE
:10015C000C0F93EA0C0F6FD01A4480EA010C40028A
:10016C0018BF5FEA41211ED04FF0006343EA5010E4
:10017C0043EA5111A0FB01310CF00040B1F5000F26
:10018C003EBF490041EAD3715B0040EA010062F1D5
:10019C007F02FD2A1DD8B3F1004F40EBC25008BFBF
:1001AC0020F00100704790F0000F0CF0004C08BFDD
:1001BC0049024CEA502040EA51207F3AC2BFD2F1AA
:1001CC00FF0340EAC250704740F400004FF00003B8
:1001DC00013A5DDC12F1190FDCBF00F000407047F2
:1001EC00C2F10002410021FA02F1C2F1200200FA30
:1001FC0002FC5FEA310040F1000053EA4C0308BFF7
:10020C0020EADC70704792F0000F00F0004C02BF47
:10021C00400010F4000F013AF9D040EA0C0093F0C2
:10022C00000F01F0004C02BF490011F4000F013B1C
:10023C00F9D041EA0C018FE70CEAD15392EA0C0F8A
:10024C0018BF93EA0C0F0AD030F0004C18BF31F0F5
:10025C00004CD8D180EA010000F00040704790F0CB
:10026C00000F17BF90F0004F084691F0000F91F06F
:10027C00004F14D092EA0C0F01D142020FD193EA35
:10028C000C0F03D14B0218BF084608D180EA0100BD
:10029C0000F0004040F0FE4040F40000704740F099
:1002AC00FE4040F44000704742000ED2B2F1FE4FC7
:1002BC000BD34FF09E03B3EB126209D44FEA002329
:1002CC0043F0004323FA02F070474FF000007047F0
:1002DC0012F1610F01D1420202D14FF0FF30704791
:1002EC004FF00000704700BF844641EA000313F052
:1002FC00030349D1403A23D30B6803604B68436036
:10030C008B688360CB68C3600B6903614B69436185
:10031C008B698361CB69C3610B6A03624B6A43626D
:10032C008B6A8362CB6AC3620B6B03634B6B436355
:10033C008B6B8363CB6BC36340304031403ADBD271
:10034C0030320BD30B6803604B6843608B6883605F
:10035C00CB68C36010301031103AF3D20C3205D395
:10036C0051F8043B40F8043B043AF9D2043208D06B
:10037C00D2071CBF11F8013B00F8013B01D30B88DD
:10038C0003806046704700BF082A13D38B07B1D097
:10039C0010F00303AED0C3F10403D21ADB071CBF69
:1003AC0011F8013B00F8013BA4D331F8023B20F8D3
:1003BC00023B9FE7043AD9D3013A11F8013B00F80C
:1003CC00013BF9D20B7803704B7843708B788370B8
:1003DC006046704708B5002201F0ECFB08BD08B57B
:1003EC00012201F0E7FB08BD2DE9F84381460F46D9
:1003FC0015469846BDF82060013B013A9BB292B27B
:10040C0000F000FD08E0304600F0E0FC0134A4B23E
:10041C00AC42F8D30137BFB2474501D24C46F7E79F
:10042C00BDE8F88310B50B461446024600F0EAFC12
:10043C00204600F0CBFC10BD2DE9F04F89B00690A2
:10044C00039100920193BDF8483002939DF84C80C3
:10045C009DF850B018F0070318BF012303EBD80325
:10046C001FFA88F2059208FB03F304930746002554
:10047C002E464AE0029800F0A9FC0136F6B2B6FB13
:10048C00F8F308FB136313F0FF0338D00134E4B224
:10049C00072C23D86DB9334B1A2202FB0A334B4479
:1004AC009B78234113F0010FE4D0019800F08EFCEF
:1004BC00E3E72C4B1A2202FB0A334B449B78234173
:1004CC0013F0010F15D10137BFB2A7EB0B03434556
:1004DC00DCD1039B01339BB203935F4609F1010905
:1004EC005FFA89F91FFA89F3049A934209D200241E
:1004FC00CEE7019A03993846FFF794FFE3E71E46CF
:10050C00ECE7AB46079D0135ADB2042D26D8AA46C3
:10051C001A2305FB03F3134AD25C009B1B789A4207
:10052C00F1D1104B1A2202FB05335A78009B5B78F1
:10053C009A42E8D1059BDA1992B203990B449BB20B
:10054C00013B013A9BB292B2384600F05BFC4FF093
:10055C00000907955D46DDF818B0C3E709B0BDE8A2
:10056C00F08F00BFC46F00082DE9F04F89B00690E2
:10057C00039100920193BDF8483002939DF84C9082
:10058C009DF850B019F0070318BF012303EBD903F2
:10059C001FFA89F2059209FB03F304930746002422
:1005AC0026464CE0029800F011FC0136F6B2B6FB80
:1005BC00F9F309FB136313F0FF033AD00134E4B2EF
:1005CC00072C25D875B908EB0813334A02EB430303
:1005DC0053449B78234113F0010FE3D0019800F0B2
:1005EC00F5FBE2E708EB08132B4A02EB43035344F9
:1005FC009B78234113F0010F15D10137BFB2A7EB44
:10060C000B034B45DAD1039B01339BB203935F463B
:10061C000AF1010A5FFA8AFA1FFA8AF3049A9342E2
:10062C0009D20024CCE7019A03993846FFF7FAFE69
:10063C00E3E71E46ECE7079CAB460134A4B2042C5E
:10064C0027D8A04604EB0413134A12F81320009B7E
:10065C001B789A42F1D104EB04130F4A02EB4303CB
:10066C005A78009B5B789A42E7D1059BDA1992B2D3
:10067C0003990B449BB2013B013A9BB292B23846B0
:10068C0000F0C0FB4FF0000A07945D46DDF818B08F
:10069C00C2E709B0BDE8F08F487000082DE9F04FB3
:1006AC0089B00690039100920193BDF848300293F3
:1006BC009DF84C809DF850B018F0070318BF01232B
:1006CC0003EBD8031FFA88F2059208FB03F304939B
:1006DC00074600252E464AE0029800F077FB0136CB
:1006EC00F6B2B6FBF8F308FB136313F0FF0338D034
:1006FC000134E4B2072C23D86DB9334B4A2202FBE8
:10070C000A334B449B78234113F0010FE4D001983A
:10071C0000F05CFBE3E72C4B4A2202FB0A334B4410
:10072C009B78234113F0010F15D10137BFB2A7EB12
:10073C000B034345DCD1039B01339BB203935F4610
:10074C0009F101095FFA89F91FFA89F3049A9342B6
:10075C0009D20024CEE7019A03993846FFF762FECE
:10076C00E3E71E46ECE7AB46079D0135ADB2042D21
:10077C0026D8AA464A2305FB03F3134AD25C009BF6
:10078C001B789A42F1D1104B4A2202FB05335A785E
:10079C00009B5B789A42E8D1059BDA1992B20399D7
:1007AC000B449BB2013B013A9BB292B2384600F02B
:1007BC0029FB4FF0000907955D46DDF818B0C3E73B
:1007CC0009B0BDE8F08F00BFF47000082DE9F04FC0
:1007DC0089B00690039100920193BDF848300293C2
:1007EC009DF84C909DF850B019F0070318BF0123E9
:1007FC0003EBD9031FFA89F2059209FB03F3049367
:10080C000746002426464CE0029800F0DFFA013639
:10081C00F6B2B6FBF9F309FB136313F0FF033AD0FE
:10082C000134E4B2072C25D875B908EB8813334A88
:10083C0002EB430353449B78234113F0010FE3D0A5
:10084C00019800F0C3FAE2E708EB88132B4A02EB9D
:10085C00430353449B78234113F0010F15D1013707
:10086C00BFB2A7EB0B034B45DAD1039B01339BB211
:10087C0003935F460AF1010A5FFA8AFA1FFA8AF3B8
:10088C00049A934209D20024CCE7019A0399384682
:10089C00FFF7C8FDE3E71E46ECE7079CAB460134C7
:1008AC00A4B2042C27D8A04604EB8413134A12F8E4
:1008BC001320009B1B789A42F1D104EB84130F4A4E
:1008CC0002EB43035A78009B5B789A42E7D1059B75
:1008DC00DA1992B203990B449BB2013B013A9BB2D9
:1008EC0092B2384600F08EFA4FF0000A07945D463B
:1008FC00DDF818B0C2E709B0BDE8F08F68720008E7
:10090C002DE9F04784B00446884616461F46BDF8CC
:10091C0030A09DF834509DF838900DE0CDF808903B
:10092C000195CDF800A03B46324641462046FFF7E4
:10093C0083FD02362C44A4B232785AB30C2DEDD080
:10094C00102D0FD0182D19D0202D23D1CDF80890B3
:10095C000195CDF800A03B46324641462046FFF7B4
:10096C0035FFE6E7CDF808900195CDF800A03B46A1
:10097C00324641462046FFF7F7FDDAE7CDF80890FE
:10098C000195CDF800A03B46324641462046FFF784
:10099C0085FECEE704B0BDE8F08700002DE9F04FEE
:1009AC0087B0834603910093BDF8403002939DF8C5
:1009BC0044301D4601939DF848905F0813F00E03D8
:1009CC0018BF012303EB151305FB03F30493203A23
:1009DC00D3B205932B4600EB550292B20B449BB25B
:1009EC00013B013A9BB292B200F00CFA5E464FF01A
:1009FC00000A554649E0059B03EB4303334A02EBDF
:100A0C00830313F80A8000241DE0314B059A03EB95
:100A1C00021313F80A80F6E7059B03EB43032D4AF8
:100A2C0002EB031313F80A80EDE7029800F0CEF9FD
:100A3C000135EDB2B5FBF7F307FB135313F0FF03CE
:100A4C003FD00134E4B2072C1BD8B9F1000F08D108
:100A5C0048FA04F313F0010FE7D0009800F0B6F950
:100A6C00E6E748FA04F313F0010F24D10136B6B2CD
:100A7C00A6EB0B03BB42E4D1039B01339BB2039364
:100A8C005E460AF1010A1FFA8AFA049B9A451AD2A9
:100A9C00019B0C2BAFD0019B102BB6D0019B182BBC
:100AAC00BAD0019B202B0ED10B4B059A03EB821372
:100ABC0013F80A80A7E7009A03993046FFF7B2FCB7
:100ACC00D4E71D46DDE707B0BDE8F08FD03B00084A
:100ADC004440000834460008045800082DE9F0474B
:100AEC0084B00446884615461F46BDF830A09DF8D4
:100AFC0034609DF838900DE0CDF808900196CDF853
:100B0C0000A03B4641462046FFF748FF04EB560445
:100B1C00A4B201352A78002AEED104B0BDE8F087E2
:100B2C000246012002E002FB00F019464B1EDBB22C
:100B3C000029F8D1704700002DE9F04F87B08046AE
:100B4C00049117461D46BDF840300593BDF844B0DE
:100B5C009DF848904FEA590A002634461FE004FBE2
:100B6C000A8000230293CDF80490CDF800B0059BC9
:100B7C002022049980B2FFF711FF0EE0303204FB03
:100B8C000A8000230293CDF80490CDF800B0059BA9
:100B9C00D2B2049980B2FFF701FF0134E4B2AC4247
:100BAC001AD2291BC9B20139C9B20A20FFF7B8FF02
:100BBC00B7FBF0F00A4AA2FB0032D20802EB820229
:100BCC00A0EB4202D2B2002ED8D16B1E9C42D5DAD9
:100BDC00002AC4D00126D1E707B0BDE8F08F00BFD2
:100BEC00CDCCCCCC2DE9F04F87B0074604911E46F6
:100BFC00BDF840300593BDF844B09DF848804FEAED
:100C0C00580A24491046FFF79BFAFFF74DFB1FFAD1
:100C1C0080F9002511E004F1300205FB0A70002375
:100C2C000293CDF80480CDF800B0059BD2B20499A4
:100C3C0080B2FFF7B3FE0135EDB2AE4227D9711B7E
:100C4C00C9B20139C9B20A20FFF76AFFB9FBF0F04B
:100C5C00114CA4FB0034E40804EB8404A0EB440422
:100C6C00E4B2B01E8542D6D100FB0A700023029379
:100C7C00CDF80480CDF800B0059B2E22049980B2EB
:100C8C00FFF78CFE0135EDB20136F6B2C3E707B0C3
:100C9C00BDE8F08F0000C842CDCCCCCC2DE9F0479C
:100CAC0092469846089F821892B2CB189BB2013B91
:100CBC00013A9BB292B200F0A5F80025A94611E0CA
:100CCC006E0017F8150000F07DF80136B85D00F0E5
:100CDC0079F801350134A4B24445F1D309F1010985
:100CEC001FFA89F9D14501D20024F5E7BDE8F08758
:100CFC002DE9F04186B01A4B9A6942F004029A61D0
:100D0C009A6902F004020092009A9A6942F0080271
:100D1C009A619B6903F008030193019B4FF0B008A3
:100D2C00CDF8088001240394032305930D4F02A9E9
:100D3C00384600F02DFE40F2034602960A4D02A9F9
:100D4C00284600F025FE22464146384600F032FF88
:100D5C0022463146284600F02DFF06B0BDE8F08152
:100D6C000010024000080140000C014038B5044658
:100D7C0001211248FFF72EFB00250BE080211048C3
:100D8C00FFF728FB20210E48FFF729FB6400E4B293
:100D9C000135EDB2072D0BD820210948FFF71AFBBE
:100DAC0014F0800FEAD080210548FFF718FBE9E723
:100DBC0001210248FFF713FB38BD00BF000C0140B6
:100DCC000008014008B5FFF7D1FF08BD10B5044677
:100DDC00000AFFF7CBFFE0B2FFF7C8FF10BD000021
:100DEC0038B50446064D10212846FFF7F3FA204685
:100DFC00FFF7BCFF10212846FFF7F1FA38BD00BF02
:100E0C0000080140F8B507460D4616461C462A2038
:100E1C00FFF7E6FF3846FFF7D9FF3046FFF7D6FF5E
:100E2C002B20FFF7DDFF05F1140080B2FFF7CEFF9A
:100E3C0004F1140080B2FFF7C9FF2C20FFF7D0FF9C
:100E4C00F8BD000010B5FFF753FF644C022120469B
:100E5C00FFF7C0FA642000F029F902212046FFF7C1
:100E6C00BEFA642000F022F94FF480612046FFF7AF
:100E7C00B6FA642000F01AF91120FFF7B1FF7820C0
:100E8C0000F014F93620FFF7ABFF0020FFF79AFFB4
:100E9C003A20FFF7A5FF0520FFF794FFB220FFF7DC
:100EAC009FFF0C20FFF78EFF0C20FFF78BFF00201D
:100EBC00FFF788FF3320FFF785FF3320FFF782FF12
:100ECC00B720FFF78DFF3520FFF77CFFBB20FFF726
:100EDC0087FF3220FFF776FFC220FFF781FF01204A
:100EEC00FFF770FFC320FFF77BFF1520FFF76AFFAA
:100EFC00C420FFF775FF2020FFF764FFC620FFF723
:100F0C006FFF0F20FFF75EFFD020FFF769FFA420D3
:100F1C00FFF758FFA120FFF755FFE020FFF760FF18
:100F2C00D020FFF74FFF0820FFF74CFF0E20FFF7F4
:100F3C0049FF0920FFF746FF0920FFF743FF052073
:100F4C00FFF740FF3120FFF73DFF3320FFF73AFF5B
:100F5C004820FFF737FF1720FFF734FF1420FFF767
:100F6C0031FF1520FFF72EFF3120FFF72BFF342028
:100F7C00FFF728FFE120FFF733FFD020FFF722FF18
:100F8C000820FFF71FFF0E20FFF71CFF0920FFF7BB
:100F9C0019FF0920FFF716FF1520FFF713FF31206B
:100FAC00FFF710FF3320FFF70DFF4820FFF70AFF74
:100FBC001720FFF707FF1420FFF704FF1520FFF79A
:100FCC0001FF3120FFF7FEFE3420FFF7FBFE21204E
:100FDC00FFF706FF2920FFF703FF10BD000C0140AF
:100FEC002DE9F04186B01B4B9A6942F004029A61DC
:100FFC009B6903F004030193019B4FF00208CDF8A9
:10100C00088001250395049503230593124C02A92E
:10101C00204600F0BDFC0427029702A9204600F0F0
:10102C00B7FC082602960DEB0601204600F0B0FC3A
:10103C002A464146204600F0BDFD2A463946204648
:10104C0000F0B8FD2A463146204600F0B3FD06B04C
:10105C00BDE8F081001002400008014010B50446C4
:10106C00042000F017FC014B1C6010BD6808002028
:10107C0010B44FF0E02254690B4B1B6800FB03FCCF
:10108C009369002104E0E01A02441144614509D23D
:10109C001A464FF0E0239B699A42FAD0F3D9D21A40
:1010AC001144F3E710BC70476808002038B50546BA
:1010BC00002404E04FF47A70FFF7DAFF0134A54204
:1010CC00F8D838BD08B50C4B0C4A1A605860002291
:1010DC009A60DA601A619A610C225A61184601F022
:1010EC00C5F928B901220649034801F072FC08BD74
:1010FC0000F036F9F6E700BF6C080020003801401C
:10110C00C009002030B58FB003683E4A934204D02A
:10111C003D4A93423DD00FB030BD3C4B9A6942F0F2
:10112C0004029A619A6902F004020192019A9A6986
:10113C0042F480429A619A6902F480420292029AC5
:10114C009A6942F001029A619B6903F001030693CC
:10115C00069B4FF400730A9302230B9301230C9309
:10116C0003230D932A4D0AA9284600F011FC4FF4D5
:10117C0080630A9300240B940AA9284600F008FC0B
:10118C00252000F065FB22462146252000F028FB97
:10119C00C1E71E4BDA6942F40032DA61DA6902F413
:1011AC0000320392039A9A6942F001029A619A6999
:1011BC0002F001020492049A9A6942F004029A61C4
:1011CC009B6903F004030593059B042306930223F8
:1011DC000793032309930E4D06A9284600F0D8FB6C
:1011EC000823069300240794089406A9284600F0C7
:1011FC00CFFB22462146262000F0F2FA262000F0F2
:10120C0027FB88E7003801400044004000100240F2
:10121C000008014010B58EB00446002101912E2229
:10122C0002A801F043FC2368304A934204D0304AB0
:10123C00934230D00EB010BD2E4A1388B2F9002064
:10124C00002AF7DB13F4804F0ED02B4A12780A2AAF
:10125C0003D0284B00221A80ECE76FEA43436FEA75
:10126C005343244A1380E5E7234A12780D2A0DD004
:10127C00C3F30D012148425401339BB21D4A138024
:10128C00C72BD7D9134600221A80D3E743F48043E7
:10129C00184A1380CEE71A4B1A78511C1970164B4A
:1012AC001978184B99541B785A2B02D0144B0022E6
:1012BC001A70134B1B78022B10D0114B1A78042A7E
:1012CC00B8D9104BDB7805339A42B3D10D4901A83C
:1012DC00FFF70AF80A4B00221A70ABE7094B5B7850
:1012EC005A2BEAD0064B00221A70E6E70038014070
:1012FC0000440040BC090020C0090020F408002074
:10130C00C5090020C809002008B5084801F03EFABC
:10131C00064801F03DFB2028FAD10122044903487C
:10132C0001F057FB0028F8D108BD00BF6C08002065
:10133C00C009002008B5084801F028FA064801F059
:10134C0027FB2028FAD101220449034801F041FB74
:10135C000028F8D108BD00BFB0080020C409002047
:10136C0072B6FEE700B591B02822002106A801F064
:10137C009DFB002301930293039304930593022393
:10138C00069301220A9210220B920D934FF46013D4
:10139C000F9306A800F02AFC80B90F2301930221B9
:1013AC000291002303934FF480620492059301A8E9
:1013BC0000F05CFE20B911B05DF804FBFFF7D0FF24
:1013CC00FFF7CEFF2DE9F0419CB000240F942E22A4
:1013DC00214610A801F06AFB0D94ADF838400B942F
:1013EC00ADF830400994ADF828400794ADF8204092
:1013FC000594069400F0BEF9FFF7B4FF4020FFF708
:10140C002DFE00F0A3F84FF4E130FFF75BFE4848E7
:10141C0000F048F9FFF7E4FDFFF714FD4FF6FF75F8
:10142C0000954FF48C73F02221462046FEF7DCFF2A
:10143C00404BC3F8844102942023019300954FF450
:10144C0078433D4A21462046FFF75AFA029410266B
:10145C00019600954FF47843384A28212046FFF72F
:10146C003DFB029601954FF4784700970323F02239
:10147C0028213020FFF760FBDFF8C480029401962E
:10148C0000953B46424628215020FFF727FB029649
:10149C000195009703234FF48C7228218020FFF7CD
:1014AC004BFB0294019600953B4642462821502066
:1014BC00FFF714FB0294019600953B46214A462106
:1014CC002046FFF70BFB02960195009704230022A0
:1014DC0046218020FFF786FB27E005EB8503D9002A
:1014EC00783189B204EB8403D80080B2164B009398
:1014FC0028231A46FFF7D2FB0134E4B2052CECD9B1
:10150C000135EDB2022D01D80024F7E7094C012377
:10151C00C4F88C314FF49670FFF7C8FD0023C4F863
:10152C008C314FF49670FFF7C1FD0025EAE700BF40
:10153C006C08002000002142F474000800750008BB
:10154C0008750008107500082475000808B50E48C9
:10155C000E4B03604FF48273436000238360C360BF
:10156C00036143614FF4007282610822C26103621D
:10157C00436283620A23C36200F054FE00B908BDC3
:10158C00FFF7EEFEFBE700BFD8090020003001405A
:10159C0000B587B00023029303930493059302686C
:1015AC00124B9A4202D007B05DF804FB03F560437E
:1015BC009A6942F480529A619A6902F480520092BC
:1015CC00009A9A6942F004029A619B6903F0040341
:1015DC000193019BA02302930223039303230593FE
:1015EC0002A9034800F0D4F9DDE700BF0030014048
:1015FC000008014082B00E4B9A6942F001029A61D8
:10160C009A6902F001020092009ADA6942F0805263
:10161C00DA61DB6903F080530193019B054A53683F
:10162C0023F0E06343F00073536002B0704700BFD7
:10163C000010024000000140FEE7FEE7FEE7FEE777
:10164C00FEE770477047704708B500F0A5F808BD75
:10165C0008B503460B4A126842B10A4A10680344A3
:10166C006A46934206D8074A136008BD054A0649E4
:10167C001160F2E701F0F0F90C2303604FF0FF303A
:10168C00F3E700BF300A0020880A00204FF0FF303B
:10169C0070474FF400534B60002070470020704798
:1016AC007047000008B5054B1860054B18680023FF
:1016BC0002221946806801F04BFA08BD340A00205A
:1016CC000C00002010B5013801280AD814464FF040
:1016DC00FF3392B20748006800F0F7FE40B920468D
:1016EC0010BD01F0B9F9092303604FF0FF30F7E7A3
:1016FC000520F5E7340A002008B548B94FF0FF3350
:10170C0001220848006800F04CFF40B9012008BDD8
:10171C0001F0A2F9092303604FF0FF30F7E7052031
:10172C00F5E700BF340A002010B504460E4B1878BC
:10173C004FF47A73B3FBF0F30C4A1068B0FBF3F080
:10174C0000F094F868B90F2C01D901200AE00022AE
:10175C0021464FF0FF3000F043F8054B1C60002091
:10176C0000E0012010BD00BF04000020000000209C
:10177C000800002008B5074A136843F010031360F3
:10178C00032000F01BF80020FFF7CEFFFFF732FF1D
:10179C00002008BD00200240034A1168034B1B784F
:1017AC000B441360704700BF380A0020040000206F
:1017BC00014B1868704700BF380A0020074AD368ED
:1017CC0023F4E0631B041B0C000200F4E0600343F1
:1017DC0043F0BF6343F40033D360704700ED00E087
:1017EC0000B5194BDB68C3F30223C3F1070CBCF142
:1017FC00040F28BF4FF0040C03F1040EBEF1060FCA
:10180C0018D9033B4FF0FF3E0EFA0CFC21EA0C01F9
:10181C0099400EFA03F322EA0303194300280BDB69
:10182C000901C9B200F1604000F5614080F8001375
:10183C005DF804FB0023E5E700F00F000901C9B2D5
:10184C00024B1954F4E700BF00ED00E014ED00E08A
:10185C00002807DB00F01F02400901239340024AD5
:10186C0042F82030704700BF00E100E00138B0F1D1
:10187C00807F0BD24FF0E0235861054AF02182F8AB
:10188C0023100020986107221A61704701207047CD
:10189C0000ED00E0042806D04FF0E022136923F09D
:1018AC000403136170474FF0E022136943F0040303
:1018BC001361704790F82130022B06D00423836308
:1018CC00002380F82030012070470268136823F051
:1018DC000E0313600268136823F001031360036C9A
:1018EC00C16B012202FA03F34B6080F82120002324
:1018FC0080F820301846704708B590F82130022B3C
:10190C0003D004238363012008BD0268136823F00D
:10191C000E0313600268136823F00103136003685D
:10192C00194A934214D0143293421FD0143293426A
:10193C001ED0143293421ED0143293421ED0143255
:10194C00934202D04FF0807203E04FF4801200E01B
:10195C0001220E4B5A60012380F82130002380F8BD
:10196C002030436B6BB198470020CDE71022F0E795
:10197C004FF48072EDE74FF48052EAE74FF4803277
:10198C00E7E70020C0E700BF08000240000002406B
:10199C0070B582B00024A446A6E0804DAA4210D0B7
:1019AC0007D97F4DAA420CD005F58035AA4208D044
:1019BC0013E0A5F58015AA4203D005F57025AA42BF
:1019CC0007D18A68002A58D0012A51D043610824D3
:1019DC0003E0A5F58015AA42F3D0BEF1FF0F4ED857
:1019EC000646BEF1FF0F4CD84FEA8C0233680F2528
:1019FC00954023EA050304FA02F2134333604B6863
:101A0C0013F0805F6ED0674B9A6942F001029A61C5
:101A1C009B6903F001030193019B4FEA9C02951C07
:101A2C00614B53F825600CF003039D000F23AB4072
:101A3C0026EA03065D4B984229D003F58063984251
:101A4C0000F08E8003F58063984200F08B8003F5E4
:101A5C008063984219D004231AE0CC68BDE7CC68A7
:101A6C000434BAE7CC680834B7E7CC680C34B4E774
:101A7C0003610824B1E70024AFE70424ADE7061D99
:101A8C00AFE7ACF108029200B0E7032300E00023BB
:101A9C00AB4033430232444D45F822304B6813F4CB
:101AAC00803F61D0424A136843EA0E0313604B68CF
:101ABC0013F4003F5ED03E4A536843EA0E03536072
:101ACC004B6813F4801F5BD0394A936843EA0E03CA
:101ADC0093604B6813F4001F58D0354AD36843EA1F
:101AEC000E03D3600CF1010C0A6832FA0CF353D0DC
:101AFC00012303FA0CF302EA030E33EA0202F1D1DA
:101B0C004A68122A3FF649AF122A3FF666AF01A582
:101B1C0055F822F0CF190008671A0008711A00084E
:101B2C00831A0008E7190008E7190008E7190008EC
:101B3C00E7190008E7190008E7190008E719000879
:101B4C00E7190008E7190008E7190008E719000869
:101B5C00E7190008E71900086B1A0008771A000843
:101B6C00012395E7022393E7114A136823EA0E0336
:101B7C0013609CE70E4A536823EA0E0353609FE7F9
:101B8C000B4A936823EA0E039360A2E7084AD368D2
:101B9C0023EA0E03D360A5E702B070BD000022104B
:101BAC00000031100010024000000140000801400C
:101BBC00000401400AB101617047090401617047DA
:101BCC0082B0084B1B68084AA2FB03235B0A00FB8C
:101BDC0003F3019300BF019B5A1E0192002BF9D114
:101BEC0002B0704700000020D34D6210002800F0B6
:101BFC00F18170B582B00446036813F0010F2CD04C
:101C0C00994B5B6803F00C03042B1DD0964B5B685F
:101C1C0003F00C03082B12D06368B3F5803F41D05E
:101C2C00002B55D103F1804303F504331A6822F4D9
:101C3C0080321A601A6822F480221A6037E08A4BCC
:101C4C005B6813F4803FE7D0874B1B6813F4003FAD
:101C5C0003D06368002B00F0BF81236813F0020FE0
:101C6C0075D0814B5B6813F00C0F5FD07E4B5B68BB
:101C7C0003F00C03082B54D02369002B00F08A804E
:101C8C007A4B01221A60FFF793FD0546764B1B68D1
:101C9C0013F0020F75D1FFF78BFD401B0228F5D90D
:101CAC0003209EE1704A136843F480331360636829
:101CBC0043B3FFF77DFD05466B4B1B6813F4003FE8
:101CCC00CBD1FFF775FD401B6428F5D9032088E1C3
:101CDC00B3F5A02F09D0644B1A6822F480321A6035
:101CEC001A6822F480221A60E1E703F18043A3F51D
:101CFC003C331A6842F480221A601A6842F480322B
:101D0C001A60D4E7FFF754FD0546574B1B6813F4D4
:101D1C00003FA2D0FFF74CFD401B6428F5D90320EF
:101D2C005FE1514B5B6813F4803FA5D14E4B1B68B0
:101D3C0013F0020F03D02369012B40F04F814A4A64
:101D4C00136823F0F803616943EAC1031360236845
:101D5C0013F0080F33D0A369002B5CD0434B012246
:101D6C00C3F88024FFF724FD05463F4B5B6A13F054
:101D7C00020F21D1FFF71CFD401B0228F5D90320CF
:101D8C002FE1394A136823F0F803616943EAC10370
:101D9C001360DCE7354B00221A60FFF709FD05469E
:101DAC00314B1B6813F0020FD1D0FFF701FD401B24
:101DBC000228F5D9032014E10120FFF701FF236865
:101DCC0013F0040F00F09680274BDB6913F0805F53
:101DDC0034D1254BDA6942F08052DA61DB6903F0C9
:101DEC0080530193019B0125214B1B6813F4807FC9
:101DFC0026D0E368012B3DD0002B53D103F1804357
:101E0C0003F504331A6A22F001021A621A6A22F0EC
:101E1C0004021A6233E0154B0022C3F88024FFF74A
:101E2C00C7FC0546104B5B6A13F0020FC7D0FFF7D7
:101E3C00BFFC401B0228F5D90320D2E00025D3E7D4
:101E4C000B4A136843F480731360FFF7B1FC06462A
:101E5C00074B1B6813F4807FCBD1FFF7A9FC801BC9
:101E6C006428F5D90320BCE0001002400000424277
:101E7C00007000405F4A136A43F001031362E36889
:101E8C0033B3FFF795FC06465A4B1B6A13F0020F4F
:101E9C002FD1FFF78DFC801B41F288339842F3D988
:101EAC0003209EE0052B09D0524B1A6A22F0010246
:101EBC001A621A6A22F004021A62E0E74D4B1A6A9F
:101ECC0042F004021A621A6A42F001021A62D6E760
:101EDC00FFF76EFC0646474B1B6A13F0020F08D047
:101EEC00FFF766FC801B41F288339842F3D903203C
:101EFC0077E0E5B9E369002B72D03E4A526802F0F4
:101F0C000C02082A56D0022B17D03B4B00221A6623
:101F1C00FFF74EFC0446374B1B6813F0007F47D08D
:101F2C00FFF746FC001B0228F5D9032059E0314A83
:101F3C00D36923F08053D361DCE72F4B00221A6660
:101F4C00FFF736FC05462B4B1B6813F0007F06D0C1
:101F5C00FFF72EFC401B0228F5D9032041E0236A31
:101F6C00B3F5803F1AD023494B6823F47413226ACB
:101F7C00606A024313434B601F4B01221A66FFF742
:101F8C0017FC04461B4B1B6813F0007F0ED1FFF7A8
:101F9C000FFC001B0228F5D9032022E0154A5368D8
:101FAC0023F40033A1680B435360DCE7002018E0F6
:101FBC00002016E0012B16D00E4B5B6803F4803129
:101FCC00226A914211D103F47013626A93420ED1CA
:101FDC00002006E001207047012002E0012000E013
:101FEC00002002B070BD0120FBE70120F9E70120C1
:101FFC00F7E700BF001002400000424286B0174BCA
:10200C000FCB0DF1180C0CE90F0040F20123ADF8C9
:10201C000430134B5B6803F00C02082A02D0114801
:10202C0006B07047C3F3834218326A4412F8100C9E
:10203C0013F4803F0DD00A4B5B68C3F34043183355
:10204C006B4413F8143C074A02FB00F0B0FBF3F0AE
:10205C00E6E7054B03FB00F0E2E700BFBC8100089C
:10206C000010024000127A0000093D00002800F028
:10207C00A08070B50D460446524B1B6803F0070355
:10208C008B420BD24F4A136823F007030B431360A8
:10209C00136803F007038B4240F08D80236813F024
:1020AC00020F17D013F0040F04D0474A536843F4BF
:1020BC00E0635360236813F0080F04D0424A53685E
:1020CC0043F460535360404A536823F0F003A16813
:1020DC000B435360236813F0010F31D06368012B5D
:1020EC0020D0022B25D0384A126812F0020F64D08F
:1020FC0035494A6822F0030213434B60FFF758FB43
:10210C000646314B5B6803F00C036268B3EB820F3D
:10211C0016D0FFF74DFB801B41F288339842F0D963
:10212C00032045E0284A126812F4003FE0D1012058
:10213C003EE0254A126812F0007FD9D1012037E029
:10214C00204B1B6803F00703AB420AD91D4A1368E6
:10215C0023F007032B431360136803F00703AB4210
:10216C002DD1236813F0040F06D0174A536823F4BB
:10217C00E063E1680B435360236813F0080F07D04A
:10218C00114A536823F46053216943EAC103536035
:10219C00FFF734FF0C4B5B68C3F303130B4AD35CA0
:1021AC00D8400B4B18600B4B1868FFF7BDFA00209A
:1021BC0070BD012070470120FAE70120F8E70120EB
:1021CC00F6E700BF0020024000100240A481000886
:1021DC000000002008000020014B1868704700BF69
:1021EC000000002008B5FFF7F7FF044B5B68C3F352
:1021FC000223034AD35CD84008BD00BF0010024044
:10220C00B481000808B5FFF7E7FF044B5B68C3F324
:10221C00C223034AD35CD84008BD00BF0010024063
:10222C00B4810008002856D010B50446436A33B96F
:10223C004368B3F5827F05D00023C36102E000231D
:10224C00036143610023A36294F85130002B3CD00E
:10225C00022384F851302268136823F04003136082
:10226C00636803F48273A26802F404421343E268C5
:10227C0002F400621343226902F002021343626902
:10228C0002F001021343A26902F400721343E269E3
:10229C0002F038021343226A02F080021343A26A4E
:1022AC0002F40052216813430B60638B226803F025
:1022BC00040353602268D36923F40063D3610020C4
:1022CC006065012384F8513010BD84F850302046ED
:1022DC00FFF75EF9BCE7012070470268D36823F46E
:1022EC009073D3600268536923F001035361036B4D
:1022FC00012B05D0202380F83E3000230363704768
:10230C000268D36823F01003D360F3E790F83D30F4
:10231C00DBB2212B01D0022070478368B3F5805FBC
:10232C0017D0036A5A1C02621A7803685A60C38C6D
:10233C009BB2013B9BB2C3844BB90268D36823F0B8
:10234C008003D3600268D36843F04003D36000205D
:10235C0070470369002BE4D1036A1B880268C3F33E
:10236C0008035360036A02330362E0E710B50446C6
:10237C000268136923F44053C1680B4313618368EB
:10238C000269134342691A430168CB6823F4B053C2
:10239C0023F00C031343CB600268536923F440739E
:1023AC0081690B4353610268134B9A4220D0FFF7AB
:1023BC0019FF024602EB820202EB820263689B0069
:1023CC00B2FBF3F20D48A0FB02314909642303FB75
:1023DC0011231B013233A0FB03235B0903F0F00232
:1023EC0002EB011203F00F03216813448B6010BD44
:1023FC00FFF708FF0246DDE7003801401F85EB516F
:10240C002DE9F84305460F4616469946DDF820801F
:10241C002C68246837EA04030CBF4FF0010C4FF012
:10242C00000CB4451FD1B8F1FF3FF1D0B8F1000F4B
:10243C0005D0FFF7BDF9A0EB09004045E8D92A68A3
:10244C00D36823F4D073D3602A68536923F0010353
:10245C005361202385F83D3085F83E30002385F804
:10246C003C30032000E00020BDE8F88358B310B5E1
:10247C00044690F83D300BB3242384F83D30226899
:10248C00D36823F40053D3602046FFF76FFF226814
:10249C00136923F4904313612268536923F02A03D0
:1024AC0053612268D36843F40053D3600020206446
:1024BC00202384F83D3084F83E3010BD80F83C3049
:1024CC00FEF720FED8E7012070472DE9F04182B0DD
:1024DC001E4690F83D30DBB2202B54D104460D46FD
:1024EC009046002953D0002A53D090F83C30012B51
:1024FC0051D0012380F83C3000230364212380F861
:10250C003D30FFF755F90746A4F82480A4F826803F
:10251C00A368B3F5805F05D04FF00008002384F862
:10252C003C3012E0236913B14FF00008F6E7A846DF
:10253C000025F3E738F8023B2268C3F30803536025
:10254C00E28C92B2013A92B2E284E38C9BB273B108
:10255C0000963B46002280212046FFF751FFE0B950
:10256C00002DE7D015F8012B23685A60E8E7009698
:10257C003B46002240212046FFF742FF78B920233A
:10258C0084F83D3000E0022002B0BDE8F08101206B
:10259C00FAE70120F8E70220F6E70320F4E703202E
:1025AC00F2E72DE9F04182B01E4690F83E30DBB2E6
:1025BC00202B5CD104460D46904600295BD0002AA6
:1025CC005BD090F83C30012B59D0012380F83C3083
:1025DC0000230364222280F83E200363FFF7E8F80F
:1025EC000746A4F82C80A4F82E80A368B3F5805F6E
:1025FC0005D04FF00008002384F83C3017E0236925
:10260C0013B14FF00008F6E7A8460025F3E723685E
:10261C005B68C3F3080328F8023B03E023685B689C
:10262C002B700135E28D92B2013A92B2E285E38DC4
:10263C009BB2BBB100963B46002220212046FFF7FF
:10264C00DFFEF0B9002DE2D0A368B3F5805FE5D0D2
:10265C0013B92369002BE1D023685B6803F07F0377
:10266C002B70DEE7202384F83E30002000E00220AF
:10267C0002B0BDE8F0810120FAE70120F8E7022062
:10268C00F6E70320F4E7704708B50168CA6822F042
:10269C004002CA60202280F83D20FFF7F4FF0020A2
:1026AC0008BD704708B5406A0023C385C384FFF793
:1026BC00F8FF08BD704790F83E30DBB2222B60D19A
:1026CC008368B3F5805F46D0826AB3F5805F04D02F
:1026DC00002B4DD10369002B4AD103685B68137042
:1026EC00836A01338362C38D9BB2013B9BB2C3856A
:1026FC00002B48D100B583B00268D36823F02003C7
:10270C00D3600268D36823F48073D3600268536982
:10271C0023F001035361202380F83E30036B012B1F
:10272C002CD1002303630268D36823F01003D36019
:10273C0003681A6812F0100F06D0002201921A6872
:10274C0001925B680193019B818DFFF7B3FF002021
:10275C0003B05DF804FB0269002AB5D1826A0368F4
:10276C005B68C3F308031380836A02338362BAE79E
:10277C0003685B6803F07F031370B1E7FEF74AFD53
:10278C00E5E70220704700207047000030B583B0A9
:10279C00044602681368D068516913F00F0505D11F
:1027AC0013F0200F02D010F0200F19D12DB111F021
:1027BC00010119D110F4907F16D1216B012975D02C
:1027CC0013F0800F03D010F0800F40F0D78013F07F
:1027DC00400F03D010F0400F40F0D48003B030BD58
:1027EC002046FFF768FFF9E713F0010F06D010F44D
:1027FC00807F03D0226C42F00102226413F0040F9C
:10280C0004D019B1226C42F00202226413F0020FC0
:10281C0004D019B1226C42F00402226413F0080FA8
:10282C0007D010F0200F00D119B1226C42F0080231
:10283C002264226C002AD1D013F0200F02D010F0A9
:10284C00200F21D123685B6903F04003226C12F046
:10285C00080F00D123B32046FFF73FFD23685A69C8
:10286C0012F0400F18D05A6922F040025A61A36B43
:10287C0073B1464A5A63A06BFFF73EF80028ADD0FF
:10288C00A06B436B9847A9E72046FFF714FFD9E7E5
:10289C002046FFF706FFA1E72046FFF702FF9DE762
:1028AC002046FFF7FEFE0023236497E713F0100F7A
:1028BC0086D010F0100F83D000230193136801937E
:1028CC0053680193019B536913F0400F32D0A16BF5
:1028DC000B685B689BB2002B80D0A08D98427FF672
:1028EC007DAFE3858B69202B08D1A18DE38D9BB245
:1028FC00C91A89B22046FFF7DDFE6FE7D36823F4CF
:10290C008073D3602268536923F0010353612268FA
:10291C00536923F040035361202384F83E30002395
:10292C0023632268D36823F01003D360A06BFEF7F7
:10293C00C1FFDAE7A18DE38D9BB2C91A89B2E38D91
:10294C009BB2002B3FF44AAF00293FF447AFD3684A
:10295C0023F49073D3602268536923F0010353610D
:10296C00202384F83E30002323632268D36823F0AD
:10297C001003D3602046FFF79DFE2FE72046FFF79C
:10298C00C5FC2BE72046FFF77FFE27E7B1260008A2
:10299C0090F83D3090F83E00184370470346816232
:1029AC008285C28500201864222283F83E2083F899
:1029BC003C001968CA6842F48072CA6019684A6996
:1029CC0042F001024A611A68D36843F02003D360D5
:1029DC00704708B590F83E30DBB2202B0DD171B1A9
:1029EC007AB190F83C30012B0DD0012380F83C30AB
:1029FC0000230363FFF7D2FF00E0022008BD012093
:102A0C00FCE70120FAE70220F8E700000C480D492A
:102A1C000D4A002302E0D458C4500433C4188C422D
:102A2C00F9D30A4A0A4C002301E013600432A24293
:102A3C00FBD3FEF735FE00F015F8FEF7C3FC70472C
:102A4C00000000204C080020E08100084C08002009
:102A5C00840A0020FEE70000014B1868704700BF95
:102A6C000C00002070B50D4E0D4D761BB61006D027
:102A7C00002455F8043B01349847A642F9D1094E7D
:102A8C00094D01F093F8761BB61006D0002455F8CA
:102A9C00043B01349847A642F9D170BDD48100089B
:102AAC00D4810008DC810008D4810008830730B58C
:102ABC0048D0541E002A3FD00346CAB201E0013C64
:102ACC003AD303F8012B9D07F9D1032C2DD9CDB2A4
:102ADC0045EA05250F2C45EA054536D9A4F1100227
:102AEC0022F00F0C03F1200EE6444FEA121C03F106
:102AFC00100242E9045542E9025510327245F8D1F0
:102B0C000CF1010214F00C0F03EB021204F00F0C89
:102B1C0013D0ACF1040323F003030433134442F841
:102B2C00045B9342FBD10CF003042CB1CAB21C44DD
:102B3C0003F8012B9C42FBD130BD64461346002C9C
:102B4C00F4D1F9E703461446BFE71A46A446E0E77A
:102B5C002DE9F043694C0E46D4F800801746044624
:102B6C001D4683B0B8F1000F03D0D8F83830002BD5
:102B7C0077D0022F05D0012F00F2AC80002DC0F2CF
:102B8C00A980636EDA0752D52146404600F05AF907
:102B9C00216B41B104F14003994202D0404600F050
:102BAC007DFA002323630023B4F90CC0A3611CF04D
:102BBC00800F636064D12CF44A6C2CF0030C022F50
:102BCC00A4F80CC06AD001AB214640466A4600F01E
:102BDC0091FBA3891843A081002D2FD0002E2ED05D
:102BEC00D8F83830002B38D0009BC4E90465AB42D0
:102BFC00B4F90C3026601CBF43F40063A381012F91
:102C0C0004BF43F00103A3819AB213F008032CD044
:102C1C00D1075DD500216D42A561656EA16015F0EF
:102C2C00010527D00025284603B0BDE8F083A38911
:102C3C009B05A9D4A06D00F059FBA5E7009D284683
:102C4C0000F088FB0646002847D0A38943F0800398
:102C5C00A381D8F83830002BC6D1404600F026F9B5
:102C6C00C2E7404600F022F983E7A360656E15F0D9
:102C7C000105D7D1930524D5284603B0BDE8F083D0
:102C8C004046216900F00AFAB4F90CC0022F2CF46A
:102C9C004A6C2CF0030CA4F80CC094D10025002134
:102CAC00012204F1430323602361636E4CF0020C98
:102CBC00D807A4F80CC0A1606261DDD41CF4007FBD
:102CCC00DAD1A06D00F014FB284603B0BDE8F08308
:102CDC00A560CBE74FF0FF35CEE7DDF80090A945B6
:102CEC0004D0484600F036FB064620B94FF0FF35BD
:102CFC00B4F90CC0D3E74D46A7E700BF0C00002089
:102D0C00024B13B1024800F005B8704700000000F8
:102D1C00DD2F0008002301461A46184600F048BE75
:102D2C00B1F90C20F8B50C461107074643D463687B
:102D3C0042F40062002BA2815BDDA56A002D56D007
:102D4C0000233E683B6093B212F4805255D10123AC
:102D5C003846E169A847421C65D0A389A56A5B0780
:102D6C0005D56368C01A236B0BB1E36BC01A02461E
:102D7C00E16900233846A847411C40D13B68002B31
:102D8C003DD01D2B01D0162B54D10022A38923F446
:102D9C000063A3812369C4E90032216B3E6031B327
:102DAC0004F14003994202D0384600F077F9002331
:102DBC0018462363F8BD2669CEB193B29A0718BFA3
:102DCC000023256808BF63692660AD1BA3600CE077
:102DDC002B463246D4F824C03846E169E047B0F1BE
:102DEC00000CA5EB0C05664416DD002DF0DC002074
:102DFC00F8BDE36B002BA0DCF9E7206DAFE70022F8
:102E0C00B4F90C30626023F400632269A381DB0403
:102E1C002260C2D52065C0E7A3894FF0FF3043F094
:102E2C004003A381F8BD3B68002B96D01D2B06D028
:102E3C00162B04D0A38943F04003A381F8BD0020D6
:102E4C003E60F8BD38B505460C4608B1836BA3B19E
:102E5C00B4F90C00B8B1636EDB0701D4810515D54C
:102E6C0028462146FFF75CFF636E0546DA0702D45D
:102E7C00A3899B050ED5284638BD00F017F8B4F988
:102E8C000C000028E7D10546284638BDA06D00F09F
:102E9C002DFAE5E7A06D00F02BFA284638BD00BFEF
:102EAC00014900F0FBB900BF6D3A00082DE9F0476D
:102EBC008246394800F01AFADAF83840002C66D10C
:102ECC00042303223549DAF80450CAF83C10DFF821
:102EDC00D090DFF8D080344F344E0AF53B71CAE9FC
:102EEC00B921CAF8E0422146EB600822C5E900444A
:102EFC00C5E904446C66AC60AC6105F15C00FFF79D
:102F0C00D5FDC5E90759C5E90987EE6205F15800F9
:102F1C0000F0E8F9DAF80850254B2146EB6008225E
:102F2C00C5E90044C5E904446C66AC60AC6105F1CC
:102F3C005C00FFF7BBFDC5E90759C5E90987EE62DF
:102F4C0005F1580000F0CEF9DAF80C50194B214677
:102F5C00EB600822C5E90044C5E904446C66AC602A
:102F6C00AC6105F15C00FFF7A1FD05F15800C5E966
:102F7C000759C5E90A76C5F8248000F0B3F9012396
:102F8C000548CAF83830BDE8F04700F0B1B902483E
:102F9C00BDE8F04700F0ACB9480A0020AD2E00089F
:102FAC0005390008293900086939000889390008F1
:102FBC000900010012000200014800F097B900BF9F
:102FCC00440A0020014800F093B900BF440A0020D5
:102FDC0038B5084B084D5B1B9C1007D0043B1D44B7
:102FEC00013C55F804399847002CF9D1BDE838401C
:102FFC0000F0E2BDE0810008DC810008F8B50C4669
:10300C00234F064600F05AFCBB685D68C4F57E632E
:10301C0025F003050F332B4423F47F6323F00F03B8
:10302C00A3F58054B4F5805F07DB0021304600F037
:10303C0051FCBB682B44984204D0304600F044FC51
:10304C000020F8BD3046614200F044FC01300DD048
:10305C00104ABB682D1B45F001055D6013683046B6
:10306C001B1B136000F030FC0120F8BD0021304622
:10307C0000F030FCBA68831A0F2BDEDD43F001033D
:10308C005360054B03491B68C01A0860D5E700BFA5
:10309C003C0400204C0A00204408002000295ED08B
:1030AC00F8B50C46064600F009FC54F8042C784F91
:1030BC00A4F1080522F001016818D7F808C043688C
:1030CC00844523F0030300F08780D207436034D497
:1030DC0054F8082C07F10804AD1A1144AA68A2424E
:1030EC0068D000EB030CDCF804E0D5F80CC01EF043
:1030FC00010FC2F80CC0CCF8082000F0918041F010
:10310C0001036B600160B1F5007F31D24A09CB0835
:10311C00012191407A6801331143796007EBC302B6
:10312C0057F83310083AC5E9021247F83350CD600E
:10313C003046BDE8F84000F0C7BBC2185268D20751
:10314C000ED4194407F108048368A34270D0C268F6
:10315C00DA60936041F001036B606950D3E770470C
:10316C0041F00103B1F5007F44F8043C0160CDD37C
:10317C00B1F5206F4FEA512347D28B0903F1390087
:10318C0003F13802C300F818FB580838984258D09D
:10319C005A6822F003028A4202D99B689842F7D1FE
:1031AC00D868C5E9023085603046DD60BDE8F8407E
:1031BC0000F08ABBC2185268D20763D40B44D0E922
:1031CC000212CA60916043F001026A603046EB5013
:1031DC00BDE8F84000F078BB0B44D10707D454F895
:1031EC00082CAD1A1344D5E90212CA60916043F061
:1031FC0001026A60274ABD6012689A4298D8264B31
:10320C0030461968FFF7FAFE92E7142B0AD9542BB3
:10321C001FD80B0B03F16F0003F16E02C300B2E772
:10322C00194491E703F15C0003F15B02C300AAE7C8
:10323C0041F00103C7E90455C5E902446B606950CC
:10324C0076E70121921001FA02F279680A437A605A
:10325C00A7E7B3F5AA7F06D8CB0B03F1780003F1EF
:10326C007702C3008FE740F25452934206D88B0C7E
:10327C0003F17D0003F17C02C30084E74FF47E73FD
:10328C007E2280E741F001036B60016050E700BFD4
:10329C003C040020480800207C0A00202DE9F8435B
:1032AC004FF000090746884600F53876D6E90154F8
:1032BC00013D10D4A389013D012B08D9B4F90E307E
:1032CC00013304D021463846C04749EA00096B1C3B
:1032DC0004F16804EED13668002EE7D14846BDE80B
:1032EC00F88300BF704700BF704700BF704700BF36
:1032FC00704700BF70B50C46B1F90E101546002989
:10330C001E4696B014DB6A4600F010FC00280FDB5A
:10331C00019A4FF4806302F47042A2F50052B2FAA3
:10332C0082F24FF40060520932602B6016B070BD0F
:10333C000023B4F90C10336011F0800004D040224B
:10334C0018462A6016B070BD4FF480632B6016B01F
:10335C0070BD00BF024B0146186800F003B800BFF7
:10336C000C0000202DE9F04F01F10B05162D06463F
:10337C0083B025D8102900F2B88000F09FFA1025F0
:10338C0018224FF0020CB54F3A445368A2F10801D1
:10339C008B4200F0B7805A68D96822F003021A44B5
:1033AC009C683046E1608C60516803F1080441F080
:1033BC000101516000F088FA204603B0BDE8F08F9F
:1033CC0035F0070500F19180A94200F28E8000F0E3
:1033DC0075FAB5F5FC7FC0F094816B0A00F08C8017
:1033EC00042B00F26A81AB0903F1390C03F13804A8
:1033FC004FEACC00994F384443680838984206D1BC
:10340C000CE0002980F22681DB68984206D05A68CD
:10341C0022F00302511B0F29F3DDA4463C69DFF8AF
:10342C0040E274457AD0626822F00302531B0F2BE2
:10343C0000F37681002BC7E904EE80F26781B2F5C8
:10344C00007F80F019810121D30852090B4491406F
:10345C007A6857F833000A4307EBC3010839A060B8
:10346C00E1607A6047F83340C46001214FEAAC0355
:10347C009940914259D8114206D12CF0030C4900C5
:10348C0011420CF1040CFAD007EBCC094846644607
:10349C00D0F80C80404508D11CE1002B80F2218132
:1034AC00D8F80C80404500F01581D8F8042022F0A3
:1034BC000302531B0F2BF0DD08EB050145F0010552
:1034CC00C8F804503046D8E90264F460A66043F0B2
:1034DC000104C7E904114C60C1E902EE48F802305E
:1034EC0000F0F2F908F1080402E00C230024336028
:1034FC00204603B0BDE8F08F4FF400704FF0400C45
:10350C003F2477E7D3689A4208BF0CF1020C7FF492
:10351C0042AF3C69DFF848E1744584D101217A68F7
:10352C004FEAAC0399409142A5D9BC68636823F07B
:10353C0003094D4503D8A9EB05030F2B7ADCDFF803
:10354C0024B1494BDBF800201B6801322B4404EBFF
:10355C00090A00F02F8103F580530F3323F47F68A1
:10356C0028F00F084146304600F0B4F9411C0246E1
:10357C0000F0EF80824500F2EA803C4B1968414430
:10358C000846196000F04981DBF800100193013105
:10359C001BBFA2EB0A0A5044CBF80020186012F0B3
:1035AC00070B00F01181CBF108010A44CBF58051D7
:1035BC0090440831A1EB0801C1F30B0A5146304687
:1035CC00009200F087F9421CDDE9002300F04B81EA
:1035DC00801A00EB0A08196848F001005144BC42FB
:1035EC00BA601960506000F02481B9F10F0F40F2FD
:1035FC0022814FF0050E6068A9F10C0C2CF0070C21
:10360C0000F0010040EA0C006060BCF10F0F04EB0D
:10361C000C00C0E901EE00F22E8114465068144BE8
:10362C001A688A4238BF1960124B1A688A4238BF2E
:10363C00196090E0621943F0010345F001056560E3
:10364C003046BA600834536000F03EF9204603B0AF
:10365C00BDE8F08FD9681A44A2E600BF3C040020F4
:10366C0044040020440800207C0A00204C0A00205E
:10367C00740A0020780A0020B2F5206F4FEA52231A
:10368C005FD3142B00F2B18003F15C01C9005B33F2
:10369C00781879580838884200F08F804B6823F0EE
:1036AC000303934202D989688842F7D1C8687A68C3
:1036BC00C4E902108460CC60D7E6142B59D9542B82
:1036CC0000F29B802B0B03F16F0C03F16E044FEA9D
:1036DC00CC008FE60134A30700F108007FF4D8AECC
:1036EC0053E0444642445368D8F80C1043F00103AD
:1036FC00536054F8083F3046D9608B6000F0E4F812
:10370C00F6E64FEAD50C05F108023CE62244536874
:10371C00304643F00103536000F0D6F80834E7E676
:10372C00611945F00105656043F00105C7E9041115
:10373C003046C1E902EE4D60A35000F0C5F80834E4
:10374C00D6E6930903F13901C9003833A0E7BC422E
:10375C005ED0BC68606820F003084545A8EB050303
:10376C0002D80F2B3FF766AF304600F0ADF80024BF
:10377C00BEE603F15C0C03F15B044FEACC0039E6C6
:10378C0059F808394B4540F095801CF0030F0CF1AB
:10379C00FF3CF5D17B6823EA01037B604900994229
:1037AC003FF6C3AE11B9C0E6490004341942FBD050
:1037BC00A44669E603F11008D4E601229B109A4056
:1037CC007B681A437A6073E702EB08014942C1F344
:1037DC000B0A51463046009200F07CF8431CDDE9A0
:1037EC0000237FF4F5AEDA46F5E6542B26D8130BFE
:1037FC0003F16F01C9006E334AE7B3F5AA7F26D8EF
:10380C00EB0B03F1780C03F177044FEACC00F1E5F4
:10381C00294B186840441860B6E6CAF30B0CBCF18F
:10382C00000F7FF4B1AEBC68C84448F00100606082
:10383C00F5E61446F3E60123536095E7B3F5AA7F4A
:10384C0024D8D30B03F17801C900773320E740F279
:10385C005452934224D8AB0C03F17D0C03F17C043D
:10386C004FEACC00C6E5ABF1080BD8444FF0000A88
:10387C00A8EB0208AFE604F1080130460093FFF70D
:10388C000DFCBC68009B60681968C8E640F2545196
:10389C008B420BD8930C03F17D01C9007C33F7E606
:1038AC004FF47E704FF07F0C7E24A3E54FF47E71B5
:1038BC007E23EDE67B6871E74C0A00200148FFF798
:1038CC0015BD00BF400A00200148FFF711BD00BF25
:1038DC00400A0020002238B5064D044608462A60EE
:1038EC00FDF7B6FE431C00D038BD2B68002BFBD077
:1038FC00236038BD800A002010B50C46B1F90E10BB
:10390C0000F03EF9002803DB236D0344236510BD52
:10391C00A38923F48053A38110BD00BF2DE9F0418E
:10392C000C46B1F90C101F46CB05054616460BD4B8
:10393C0021F48051A1813B4632462846B4F90E1041
:10394C00BDE8F04100F01EB8B4F90E1002230022BD
:10395C0000F000F9B4F90C10EAE700BF10B50C4602
:10396C00B1F90E1000F0F6F8A389421C0EBF23F437
:10397C00805343F480532065A38110BDB1F90E1020
:10398C0000F05CB838B50C46114600228446074D51
:10399C0020462A601A466446FDF794FE431C00D06C
:1039AC0038BD2B68002BFBD0236038BD800A00206B
:1039BC002DE9F047DFF87CA00646DAF800009846BF
:1039CC000F469146FFF792FC1B4B1B68D3F84841FE
:1039DC0024B365681F2D26DC5EB96B1C0235DAF842
:1039EC000000636044F82570FFF782FC0020BDE8FE
:1039FC00F087012304EB8501C1F88890D4F8882165
:103A0C00AB401A43022EC4F88821C1F80881E4D1D6
:103A1C00D4F88C211343C4F88C31DEE703F5A6747B
:103A2C00C3F84841D5E7DAF80000FFF761FC4FF026
:103A3C00FF30DCE738040020D0810008002238B5C4
:103A4C00064D044608462A60FDF720FE431C00D0B4
:103A5C0038BD2B68002BFBD0236038BD800A0020BA
:103A6C0070B500294BD006460C4610B1836B002B69
:103A7C0048D0636ED80734D5B4F90C30002B3ED047
:103A8C0021463046FFF74CF9E36A054633B1304620
:103A9C00E16998470028B8BF4FF0FF35A3891A0693
:103AAC003BD4216B41B104F14003994202D0304622
:103ABC00FFF7F4FA00232363616C21B13046FFF762
:103ACC00EDFA00236364FFF777FA0022636EA2819C
:103ADC00DB0727D5A06DFFF707FCFFF773FA284625
:103AEC0070BDA3899905CBD4A06DFFF7FFFBB4F98A
:103AFC000C30002BC4D1656E15F0010508D00025E3
:103B0C00284670BDFFF7D2F9636ED807B4D4E8E746
:103B1C00A06DFFF7EDFB284670BD30462169FFF71D
:103B2C00BDFABEE7A06DFFF7E3FBD3E770B5002647
:103B3C00074D0446084611462E60FDF7AAFD431CAE
:103B4C0000D070BD2B68002BFBD0236070BD00BF74
:103B5C00800A002038B50C46114600228446074DD9
:103B6C0020462A601A466446FDF798FD431C00D097
:103B7C0038BD2B68002BFBD0236038BD800A002099
:103B8C0038B50C46114600228446074D20462A6063
:103B9C001A466446FDF7B0FD431C00D038BD2B68B7
:103BAC00002BFBD0236038BD800A0020F8B500BF85
:103BBC00F8BC08BC9E467047F8B500BFF8BC08BC02
:043BCC009E4670475A
:103BD00000000000000000000000000000000404DD
:103BE000040404000004000014140A000000000093
:103BF0000000000000000A0A1F0A0A1F0A0A00004B
:103C000000040E1505060C14150E04000000121514
:103C10000D152E2C2A1200000000040A0A36151574
:103C20002916000002020100000000000000000050
:103C3000100808040404040408081000020404081E
:103C4000080808080404020000000004150E0E1500
:103C50000400000000000008083E08080000000002
:103C6000000000000000000002020100000000004F
:103C7000003F000000000000000000000000000005
:103C800000020000002010100808040402020100D5
:103C900000000E1111111111110E00000000040698
:103CA00004040404040E000000000E1111080402B4
:103CB000011F000000000E11100C1010110E00006A
:103CC0000000080C0C0A091F081C000000001F015E
:103CD000010F1110110E000000000C12010D131144
:103CE000110E000000001E10080804040404000067
:103CF00000000E11110E1111110E000000000E1126
:103D00001119161009060000000000000400000050
:103D10000004000000000000000400000004040093
:103D20000000100804020204081000000000000057
:103D30003F003F00000000000000020408101008CF
:103D40000402000000000E11110804040004000029
:103D500000001C22292D2D1D221C0000000004043F
:103D60000C0A0A1E1233000000000F12120E12126B
:103D7000120F000000001E1101010101110E0000D0
:103D800000000F1212121212120F000000001F1278
:103D90000A0E0A02121F000000001F120A0E0A0279
:103DA0000207000000001C1201013911120C000072
:103DB00000003312121E12121233000000001F0402
:103DC00004040404041F000000003E08080808085A
:103DD00008080907000037120A060A121237000005
:103DE0000000070202020202223F000000003B1B0B
:103DF0001B1B15151535000000003B1216161A1A6C
:103E00001217000000000E1111111111110E000007
:103E100000000F12120E02020207000000000E1135
:103E200011111117190E180000000F12120E0A12AC
:103E30001237000000001E1101060810110F0000CB
:103E400000001F1504040404040E000000003312D7
:103E500012121212120C000000003312120A0A0C85
:103E6000040400000000151515150E0A0A0A0000CA
:103E700000001B0A0A04040A0A1B000000001B0AB7
:103E80000A0A0404040E000000001F0908040402CA
:103E9000121F00001C0404040404040404041C0095
:103EA0000002020404040808081010000E080808A4
:103EB0000808080808080E00040A000000000000B6
:103EC0000000000000000000000000000000003FB3
:103ED00002040000000000000000000000000000DC
:103EE000000C121C123C000000030202020E12120F
:103EF000120E000000000000001C1202120C000054
:103F000000181010101C1212123C000000000000DB
:103F1000000C121E021C000000182404041E0404DD
:103F2000041E000000000000003C120C021C221CB9
:103F300000030202020E12121237000000040400F5
:103F400000060404040E000000080800000C080825
:103F50000808080700030202021A0A060A130000F2
:103F60000007040404040404041F0000000000000F
:103F7000000F15151515000000000000000F1212AB
:103F80001237000000000000000C1212120C00009A
:103F900000000000000F1212120E020700000000C5
:103FA000001C1212121C103800000000001B060238
:103FB0000207000000000000001E020C101E00009E
:103FC00000000004041E0404041C000000000000A3
:103FD000001B1212123C000000000000001B0A0A25
:103FE00004040000000000000015150E0A0A00007D
:103FF00000000000001B0A040A1B00000000000073
:10400000003312120C08040300000000001E080414
:10401000041E000018080808080C08080808180002
:10402000080808080808080808080808060404041E
:10403000040804040404060016090000000000003F
:104040000000000000000000000000000000000070
:104050000000000000000008080808080808000028
:104060001818000000486C24120000000000000036
:10407000000000000000002424247F1212127F128E
:10408000121200000000081C2A2A0A0C1828282AEC
:104090002A1C080800000022251515152A5854541A
:1040A000542200000000000C1212120A7625291179
:1040B000916E0000000606040300000000000000EE
:1040C0000000000000402010100808080808081030
:1040D00010204000000204080810101010101008F2
:1040E000080402000000000008086B1C1C6B080894
:1040F0000000000000000000080808087F08080809
:1041000008000000000000000000000000000000A7
:10411000060604030000000000000000FE0000008E
:10412000000000000000000000000000000000008F
:1041300006060000000080404020201010080804FF
:10414000040202000000001824424242424242425D
:1041500024180000000000080E08080808080808D5
:10416000083E00000000003C4242422020100804AB
:10417000427E00000000003C4242201820404042A5
:10418000221C0000000000203028242422227E204F
:10419000207800000000007E0202021A2640404201
:1041A000221C0000000000382402021A264242426B
:1041B000241800000000007E2222101008080808C1
:1041C000080800000000003C4242422418244242F9
:1041D000423C000000000018244242426458404023
:1041E000241C00000000000000001818000000005F
:1041F0001818000000000000000000080000000087
:104200000008080400000040201008040204081000
:10421000204000000000000000007F0000007F0040
:1042200000000000000000020408102040201008D8
:10423000040200000000003C4242464020101000F2
:10424000181800000000001C225A555555552D42E3
:10425000221C00000000000808181414243C22420C
:1042600042E700000000001F2222221E224242429A
:10427000221F00000000007C4242010101010142B6
:10428000221C00000000001F2242424242424242E1
:10429000221F00000000003F4212121E12120242B2
:1042A000423F00000000003F4212121E12120202A2
:1042B000020700000000003C2222010101712122BE
:1042C000221C0000000000E7424242427E4242427D
:1042D00042E700000000003E080808080808080837
:1042E000083E00000000007C10101010101010108C
:1042F0001010110F0000007722120A0E0A1212226B
:1043000022770000000000070202020202020202FD
:10431000427F000000000077363636362A2A2A2AE5
:104320002A6B0000000000E346464A4A525252629D
:10433000624700000000001C2241414141414141CF
:10434000221C00000000003F424242423E020202A4
:10435000020700000000001C2241414141414D5331
:10436000321C60000000003F4242423E12122222F4
:1043700042C700000000007C424202041820404274
:10438000423E00000000007F4908080808080808AD
:10439000081C0000000000E7424242424242424202
:1043A000423C0000000000E742422224241414187A
:1043B000080800000000006B49494949555536225C
:1043C00022220000000000E74224241818182424A8
:1043D00042E70000000000772222141408080808B1
:1043E000081C00000000007E212010100804044278
:1043F000423F000000780808080808080808080874
:1044000008087800000002020404080808101020C0
:1044100020204040001E101010101010101010101E
:1044200010101E00003844000000000000000000D2
:10443000000000000000000000000000000000007C
:10444000000000FF0006080000000000000000005F
:1044500000000000000000000000003C42784442E0
:1044600042FC0000000000030202021A26424242FF
:10447000261A00000000000000000038440202027A
:10448000443800000000006040404078444242420E
:1044900064D80000000000000000003C427E0202E0
:1044A000423C0000000000F08808087E0808080868
:1044B000083E0000000000000000007C22221C02D8
:1044C0003C42423C000000030202023A46424242A1
:1044D00042E700000000000C0C00000E080808086D
:1044E000083E00000000003030000038202020206E
:1044F0002020221E0000000302020272120A16127D
:10450000227700000000000E0808080808080808C4
:10451000083E0000000000000000007F929292928E
:1045200092B70000000000000000003B46424242FB
:1045300042E70000000000000000003C424242420E
:10454000423C0000000000000000001B26424242E6
:10455000221E020700000000000000784442424290
:10456000447840E000000000000000774C040404A0
:10457000041F0000000000000000007C42023C40DC
:10458000423E0000000000000008083E080808083D
:104590000830000000000000000000634242424278
:1045A00062DC000000000000000000E74224241448
:1045B0000808000000000000000000EB49495555C4
:1045C00022220000000000000000007624181818C5
:1045D000246E000000000000000000E742242414C4
:1045E00018080807000000000000007E22100808DC
:1045F000447E000000C02020202020102020202009
:104600002020C000101010101010101010101010EA
:1046100010101010000608080808081008080808FC
:10462000080806000C32C200000000000000000074
:10463000000000000000000000000000000000007A
:10464000000000000000000000000000000000006A
:10465000000000000000000000000000000000005A
:10466000000000000000000000000000600060008A
:1046700060006000600060006000400020002000DA
:1046800020000000000000006000600060000000EA
:104690000000000000000000600660063003980182
:1046A000880044000000000000000000000000003E
:1046B00000000000000000000000000000000000FA
:1046C00000000000000000000000000010021002C6
:1046D00010021002FE07FE07080208010801080187
:1046E0000801FE07FE0704010401040104010000A3
:1046F0000000000000000000000040004000F00149
:1047000058034C03CC034C0058007000E000C0017B
:10471000C00140034C035C034C034801F00040001F
:104720004000000000000000000000000E010A012F
:10473000910091009100510051003A00AE03A00297
:1047400050045004480448044804840284030000D0
:1047500000000000000000000000000038006C00B5
:104760006C006C006C006C002C0098071C011A0196
:10477000330133016301E300C308C6093C070000AD
:1047800000000000000000000C001C0010001000E1
:10479000080004000000000000000000000000000D
:1047A0000000000000000000000000000000000009
:1047B0000000000000000000000400020001800072
:1047C0008000400040002000200020002000200049
:1047D0002000200040004000800080000001000216
:1047E00000040000000000000200040008001000A7
:1047F0001000200020004000400040004000400029
:1048000040004000200020001000100008000400BC
:104810000200000000000000000000000000000096
:104820004000C0004000460C4E0FD001F0015E0F6A
:10483000460C400040004000000000000000000066
:104840000000000000000000000000000000000068
:10485000000040004000400040004000FE0F4000CB
:104860004000400040004000000000000000000048
:104870000000000000000000000000000000000038
:104880000000000000000000000000000000000028
:1048900000000000000000000C001C0010001000D0
:1048A00008000400000000000000000000000000FC
:1048B000000000000000000000000000FE070000F3
:1048C00000000000000000000000000000000000E8
:1048D00000000000000000000000000000000000D8
:1048E00000000000000000000000000000000000C8
:1048F00000000000000000001C001C001C00000064
:104900000000000000000000000400060002000398
:104910000001000180008000400040006000200095
:10492000200010001000080008000C000400060021
:104930000200000000000000000000000000F00085
:1049400098010C030C030606060606060606060674
:104950000606060606060C030C039801F00000008C
:104960000000000000000000000000000000400007
:104970007C0060006000600060006000600060001B
:10498000600060006000600060006000FC030000E8
:104990000000000000000000000000000000F8001F
:1049A0008401020306030603000300018001C00026
:1049B000600020001000080204020602FE0300004E
:1049C000000000000000000000000000000078006F
:1049D000C6008601860180018001C0007000800150
:1049E000000100030003060306038601F80000002F
:1049F0000000000000000000000000000000800136
:104A00008001C001A001A0019001880188018401FA
:104A10008201FE0F8001800180018001E00700001B
:104A20000000000000000000000000000000FC0387
:104A300004000400040004000400F4008C010403DA
:104A4000000300030603060382018401F80000004E
:104A50000000000000000000000000000000E00175
:104A600018030C030C0004000600E60116030E06F2
:104A700006060606060604060C021803F0000000EF
:104A80000000000000000000000000000000F80727
:104A90000C060402040100010001800080004000B7
:104AA00040004000600060006000600060000000A6
:104AB0000000000000000000000000000000F801FD
:104AC0000C030606060606060C021C03F000C801CD
:104AD0000C0306060606060606060C03F001000097
:104AE0000000000000000000000000000000F000D6
:104AF0000C010C03060206060606060606078C06CF
:104B000078060006000300030C018C017800000009
:104B10000000000000000000000000000000000095
:104B20000000000000000000E000E000E0000000E5
:104B30000000000000000000E000E000E0000000D5
:104B40000000000000000000000000000000000065
:104B50000000000000000000600060000000000095
:104B60000000000000000000000060006000400045
:104B700020002000000000000000000000040002EF
:104B80000001800040002000100008000400080020
:104B9000100020004000800000010002000400001E
:104BA0000000000000000000000000000000000005
:104BB0000000000000000000FE07000000000000F0
:104BC000FE070000000000000000000000000000E0
:104BD00000000000000000000000000004000800C9
:104BE00010002000400080000001000200040002CC
:104BF00000018000400020001000080004000000B8
:104C00000000000000000000000000000000E003C1
:104C10001806040C040C0C0C0C0C0007800140005E
:104C20004000400000000000E000E000E000000064
:104C3000000000000000000000000000E000180379
:104C40000C02CC0564056605A605B604B604B604D8
:104C5000B604B602E4010C040C021803F0000000D4
:104C600000000000000000000000000000006000E4
:104C700060005000D000900090008800880108017A
:104C8000F801040304030402020202060F0F0000ED
:104C90000000000000000000000000000000FE0016
:104CA0008C030C030C030C030C038C01FC000C03A1
:104CB0000C020C060C060C060C060C03FE01000090
:104CC0000000000000000000000000000000E00301
:104CD00018030C060C040404060006000600060077
:104CE0000600060006040C040C021803F000000085
:104CF00000000000000000000000000000007F0035
:104D00008C010C030C030C060C060C060C060C069E
:104D10000C060C060C060C030C038C017F00000033
:104D20000000000000000000000000000000FF0381
:104D3000060306040604060086008600FE008600C0
:104D4000860086000600060406040602FF03000033
:104D50000000000000000000000000000000FF0351
:104D6000060306040604060086008600FE00860090
:104D70008600860006000600060006001F000000F0
:104D80000000000000000000000000000000F00033
:104D900018010C020C0204020600060006000600C0
:104DA000C60F060306030C030C031803F0000000F3
:104DB00000000000000000000000000000000F0FD5
:104DC000060606060606060606060606FE0706068A
:104DD0000606060606060606060606060F0F00006D
:104DE0000000000000000000000000000000FC03C4
:104DF00060006000600060006000600060006000B3
:104E0000600060006000600060006000FC03000063
:104E10000000000000000000000000000000F80793
:104E2000C000C000C000C000C000C000C000C00082
:104E3000C000C000C000C000C000C000C000C6006C
:104E400066003C0000000000000000000000CF03EE
:104E50008601C60046002600160036002E006E00B1
:104E60004600C60086008601060106038F07000083
:104E700000000000000000000000000000001F0013
:104E800006000600060006000600060006000600F2
:104E9000060006000600060406040602FF030000E2
:104EA00000000000000000000000000000000707F4
:104EB000860386038E038E034E034E034A035A0372
:104EC0005A033A0332033203320312038707000006
:104ED00000000000000000000000000000008E0F35
:104EE0000C021C021C0234023402640264024402FA
:104EF000C402840284038403040304031F02000029
:104F00000000000000000000000000000000F000B1
:104F100098010C030C02060606060606060606069F
:104F20000606060606060C020C039801F0000000B7
:104F30000000000000000000000000000000FF0072
:104F40000603060606060606060606068603FE0095
:104F50000600060006000600060006001F0000000E
:104F60000000000000000000000000000000F00051
:104F700098010C030C02060606060606060606063F
:104F80000606060676064C02CC039801F000800760
:104F90000003000000000000000000000000FF010E
:104FA000060306060606060606060603FE0046007B
:104FB000C600860086010603060306060F0E0000E3
:104FC0000000000000000000000000000000F802E7
:104FD0000C030602060206000E003C00F800E00387
:104FE000800300070206020606060C03F00100001B
:104FF0000000000000000000000000000000FE07AC
:105000006204610861086000600060006000600088
:10501000600060006000600060006000F801000057
:1050200000000000000000000000000000001E075B
:105030000C020C020C020C020C020C020C020C0200
:105040000C020C020C020C020C021801F000000011
:1050500000000000000000000000000000000F073A
:105060000602040104010C010C018800880098006C
:105070009800500050007000300020002000000018
:105080000000000000000000000000000000F70E1B
:10509000620442044604460464026402E402E40238
:1050A0009C029C01980198018801880088000000FA
:1050B00000000000000000000000000000009E074B
:1050C0000C01080118019000B00060002000600091
:1050D0006000D00090008801080104038E070000E2
:1050E00000000000000000000000000000000F0FA2
:1050F000060404020C0208011801B800B000700098
:10510000600060006000600060006000F801000066
:105110000000000000000000000000000000FC078C
:105120000C020603020180018000400040002000C4
:1051300020001000180008040C040402FE03000004
:105140000000000000000000E0032000200020001C
:10515000200020002000200020002000200020004F
:10516000200020002000200020002000200020003F
:10517000E003000000000000000000000400040044
:10518000080008001000100010002000200040005F
:105190004000C00080008000000100010002000209
:1051A00000020004000000007C00400040004000BD
:1051B00040004000400040004000400040004000EF
:1051C00040004000400040004000400040004000DF
:1051D0007C0000000000600090000801000000005A
:1051E00000000000000000000000000000000000BF
:1051F00000000000000000000000000000000000AF
:10520000000000000000000000000000000000009E
:10521000000000000000000000000000000000008E
:10522000000000000000000000000000000000007E
:105230000000FF0F000000001800600000000000E8
:10524000000000000000000000000000000000005E
:10525000000000000000000000000000000000004E
:10526000000000000000000000000000000000003E
:105270000000000000000000F0010C030C0300031C
:10528000E0031C030E03060306038E0B7C0E0000D6
:1052900000000000000000000000000008000E00F8
:1052A0000C000C000C000C00CC013C031C060C068E
:1052B0000C060C060C060C060C021C03E401000094
:1052C00000000000000000000000000000000000DE
:1052D0000000000000000000F0008C018C0186013D
:1052E00006000600060006020C020C01F000000099
:1052F0000000000000000000000000000002C003E9
:10530000000300030003000378038C030C0306036F
:10531000060306030603060304038C077801000056
:10532000000000000000000000000000000000007D
:105330000000000000000000E001180308020C0655
:105340000C06FC070C000C0018041802E001000019
:105350000000000000000000000000000000C0038A
:105360006006300630003000FE01300030003000B2
:10537000300030003000300030003000FC01000010
:10538000000000000000000000000000000000001D
:105390000000000000000000F007D8068C018C011E
:1053A0008C019801F8000C00FC00CC0306030603F6
:1053B0008E03F800000000000000000008000E004E
:1053C0000C000C000C000C00EC011C030C030C0383
:1053D0000C030C030C030C030C030C039E070000CE
:1053E000000000000000000000000000000060005D
:1053F00060000000000040007C0060006000600071
:10540000600060006000600060006000FC0300005D
:105410000000000000000000000000000000C001CB
:10542000C001000000000001F00180018001800146
:105430008001800180018001800180018001800164
:10544000CC007C00000000000000000008000E00FE
:105450000C000C000C000C008C038C008C004C0029
:105460006C005C008C008C010C010C039E0700009A
:1054700000000000000000000000000040007C0070
:10548000600060006000600060006000600060001C
:10549000600060006000600060006000FC030000CD
:1054A00000000000000000000000000000000000FC
:1054B00000000000000000003707EE0666066606E2
:1054C000660666066606660666066606FF0F000046
:1054D00000000000000000000000000000000000CC
:1054E0000000000000000000EE011C030C030C0390
:1054F0000C030C030C030C030C030C039E070000AD
:10550000000000000000000000000000000000009B
:105510000000000000000000F00098010C030606E7
:1055200006060606060606060C030C03F00000003D
:10553000000000000000000000000000000000006B
:105540000000000000000000EE011C030C060C0629
:105550000C060C060C060C060C031C03EC010C00DC
:105560000C003E00000000000000000000000000F1
:10557000000000000000000078028C030C0306030A
:10558000060306030603060304038C0378030003E3
:105590000003C00700000000000000000000000041
:1055A00000000000000000009F03580638061800A5
:1055B000180018001800180018001800FF0000005C
:1055C00000000000000000000000000000000000DB
:1055D0000000000000000000F0031C030C020C029D
:1055E0003800F000C003040304038C03FC01000036
:1055F00000000000000000000000000000000000AB
:105600002000200030003000FE013000300030006B
:10561000300030003000300030023002E001000085
:10562000000000000000000000000000000000007A
:1056300000000000000008028E030C030C030C03A2
:105640000C030C030C030C030C039C0778010000F3
:10565000000000000000000000000000000000004A
:1056600000000000000000001E070C0208010801F5
:1056700018019000B000B000600060002000000041
:10568000000000000000000000000000000000001A
:105690000000000000000000F70E620446046402EF
:1056A0006402EC029C019801980198010800000036
:1056B00000000000000000000000000000000000EA
:1056C0000000000000000000BC0718011001B0003D
:1056D00060006000E0009000080108039E070000E1
:1056E00000000000000000000000000000000000BA
:1056F00000000000000000009E07080108010801EA
:1057000090009000B0006000600060002000200069
:1057100024001C0000000000000000000000000049
:105720000000000000000000FC018401C4004400EF
:10573000600020003000180208020C03FC01000089
:1057400000000000000000000003800080008000D6
:105750008000800080008000800040002000400029
:105760008000800080008000800080008000800039
:1057700000030000400040004000400040004000A6
:105780004000400040004000400040004000400019
:105790004000400040004000400040004000400009
:1057A00040004000000000000C001000100010003D
:1057B0001000100010001000100020004000200019
:1057C0001000100010001000100010001000100059
:1057D0000C00000000001C002204C2048003000032
:1057E00000000000000000000000000000000000B9
:1057F00000000000000000000000000000000000A9
:105800000000000000000000000000000000000098
:105810000000000000000000000000000000000088
:105820000000000000000000000000000000000078
:105830000000000000000000000000000000000068
:105840000000000000000000000000000000C00197
:10585000C001C001C001C001C001C00180008000C2
:1058600080008000800080008000000000000000B8
:1058700000008001C003C0038001000000000000A0
:1058800000000000000000000000E01CE01CF01E12
:10589000700E3807180308018400000000000000A3
:1058A00000000000000000000000000000000000F8
:1058B00000000000000000000000000000000000E8
:1058C00000000000000000000000000000000000D8
:1058D00020102010201020102010FE7FFE7F1008C6
:1058E000100810081008100810081008FE7FFE7F2E
:1058F000080408040804080408040000000000006C
:105900000000000000000000000000000001000195
:10591000C007601910311831183918393801700171
:10592000E001C0038007000F001D003900311C3169
:105930001C310C310C11180DE007000100010001B1
:105940000000000000000000000000000000000057
:105950001C1036186308630C63046304630263025B
:105960006301361D9C37802280634063406320635F
:105970002063306310221836081C0000000000006D
:105980000000000000000000000000000000000017
:10599000F00098018C018C018C018C018C00CC00F2
:1059A0007800183E1C083608320863046304C304F8
:1059B000C303834306438E26781C000000000000CA
:1059C000000000000000000000001C003C003C0043
:1059D0003000300010000C00060000000000000045
:1059E00000000000000000000000000000000000B7
:1059F00000000000000000000000000000000000A7
:105A00000000000000000000000000400020001026
:105A10000008000C000400060003000300038001DE
:105A200080018001800180018001800180010003EC
:105A30000003000300060006000C00080010002010
:105A40000040000000000000000002000400080008
:105A50001000300020006000C000C000C0008001C5
:105A60008001800180018001800180018001C000EF
:105A7000C000C0006000600030001000080004009A
:105A80000200000000000000000000000000000014
:105A90000000000000018003800300011C713C79BC
:105AA000783DC0070001C007783D3C791C710001BA
:105AB000800380038001000000000000000000005F
:105AC00000000000000000000000000000000000D6
