:020000040800F2
:100000000050002019510008013D0008033D000880
:10001000053D0008073D0008093D000800000000FC
:100020000000000000000000000000000B3D000880
:100030000D3D0008000000000F3D0008113D0008C4
:1000400061510008615100086151000861510008C8
:1000500061510008615100086151000861510008B8
:1000600061510008615100086151000861510008A8
:100070006151000861510008615100086151000898
:100080006151000861510008615100086151000888
:100090006151000861510008615100086151000878
:1000A0006151000861510008615100086151000868
:1000B0006151000861510008615100086151000858
:1000C0006151000861510008615100086151000848
:1000D000615100080D3B0008393B000861510008E0
:1000E00061510008615100086151000800000000E2
:1000F0000000000000000000000000000000000000
:0C01000000000000000000005FF808F1A3
:1001100010B5054C237833B9044B13B10448AFF341
:1001200000800123237010BDC809002000000000DA
:10013000F0D2000808B5034B1BB103490348AFF3E5
:10014000008008BD00000000CC090020F0D20008AB
:1001500081F0004102E000BF83F0004330B54FEA78
:1001600041044FEA430594EA050F08BF90EA020FE5
:100170001FBF54EA000C55EA020C7FEA645C7FEA78
:10018000655C00F0E2804FEA5454D4EB5555B8BF9B
:100190006D420CDD2C4480EA020281EA030382EA0C
:1001A000000083EA010180EA020281EA0303362D9E
:1001B00088BF30BD11F0004F4FEA01314FF4801C71
:1001C0004CEA113102D0404261EB410113F0004F83
:1001D0004FEA03334CEA133302D0524263EB43033A
:1001E00094EA050F00F0A780A4F10104D5F1200ED8
:1001F0000DDB02FA0EFC22FA05F2801841F1000133
:1002000003FA0EF2801843FA05F359410EE0A5F106
:1002100020050EF1200E012A03FA0EFC28BF4CF037
:10022000020C43FA05F3C01851EBE37101F00045ED
:1002300007D54FF0000EDCF1000C7EEB00006EEBFA
:100240000101B1F5801F1BD3B1F5001F0CD3490884
:100250005FEA30004FEA3C0C04F101044FEA4452DB
:1002600012F5800F80F09A80BCF1004F08BF5FEA62
:10027000500C50F1000041EB045141EA050130BD42
:100280005FEA4C0C404141EB0101013C28BFB1F554
:10029000801FE9D291F0000F04BF01460020B1FA9F
:1002A00081F308BF2033A3F10B03B3F120020CDA72
:1002B0000C3208DD02F1140CC2F10C0201FA0CF050
:1002C00021FA02F10CE002F11402D8BFC2F1200CB5
:1002D00001FA02F120FA0CFCDCBF41EA0C0190406B
:1002E000E41AA2BF01EB0451294330BD6FEA0404B4
:1002F0001F3C1CDA0C340EDC04F11404C4F120029F
:1003000020FA04F001FA02F340EA030021FA04F3B0
:1003100045EA030130BDC4F10C04C4F1200220FA07
:1003200002F001FA04F340EA0300294630BD21FA45
:1003300004F0294630BD94F0000F83F4801306BF0B
:1003400081F480110134013D4EE77FEA645C18BFFF
:100350007FEA655C29D094EA050F08BF90EA020F96
:1003600005D054EA000C04BF1946104630BD91EA8E
:10037000030F1EBF0021002030BD5FEA545C05D191
:100380004000494128BF41F0004130BD14F58004D0
:100390003CBF01F5801130BD01F0004545F0FE4144
:1003A00041F470014FF0000030BD7FEA645C1ABF79
:1003B000194610467FEA655C1CBF0B46024650EAB0
:1003C000013406BF52EA033591EA030F41F40021DC
:1003D00030BD00BF90F0000F04BF0021704730B562
:1003E0004FF4806404F132044FF000054FF0000137
:1003F00050E700BF90F0000F04BF0021704730B5F8
:100400004FF4806404F1320410F0004548BF4042CC
:100410004FF000013EE700BF42004FEAE2014FEA21
:1004200031014FEA02701FBF12F07F4393F07F4FFC
:1004300081F06051704732F07F4208BF704793F0FF
:100440007F4F04BF41F40021704730B54FF4607412
:1004500001F0004521F000411CE700BF50EA010215
:1004600008BF704730B54FF000050AE050EA0102BE
:1004700008BF704730B511F0004502D5404261EB2E
:1004800041014FF4806404F132045FEA915C3FF46F
:10049000D8AE4FF003025FEADC0C18BF03325FEA0C
:1004A000DC0C18BF033202EBDC02C2F1200300FABD
:1004B00003FC20FA02F001FA03FE40EA0E0021FAE2
:1004C00002F11444BDE600BF4FF0FF3C06E000BF60
:1004D0004FF0010C02E000BF4FF0010C4DF804CDCD
:1004E0004FEA410C7FEA6C5C4FEA430C18BF7FEA8D
:1004F0006C5C1BD001B050EA410C0CBF52EA430CBB
:1005000091EA030F02BF90EA020F0020704710F13A
:10051000000F91EA030F58BF994208BF90422CBFC9
:10052000D8176FEAE37040F0010070474FEA410CC2
:100530007FEA6C5C02D150EA013C07D14FEA430CE0
:100540007FEA6C5CD6D152EA033CD3D05DF8040B51
:10055000704700BF8446104662468C461946634683
:1005600000E000BF01B5FFF7B7FF002848BF10F15A
:10057000000F01BD4DF808EDFFF7F4FF0CBF01209F
:1005800000205DF808FB00BF4DF808EDFFF7EAFF1B
:1005900034BF012000205DF808FB00BF4DF808EDD6
:1005A000FFF7E0FF94BF012000205DF808FB00BFCB
:1005B0004DF808EDFFF7CEFF94BF012000205DF855
:1005C00008FB00BF4DF808EDFFF7C4FF34BF012062
:1005D00000205DF808FB00BF4FEA410212F500124F
:1005E00015D211D56FF47873B3EB625212D94FEA7A
:1005F000C12343F0004343EA505311F0004F23FA64
:1006000002F018BF404270474FF00000704750EAB8
:10061000013005D111F0004008BF6FF00040704775
:100620004FF00000704700BF80F0004002E000BFC4
:1006300081F0004142001FBF5FEA410392EA030FCD
:100640007FEA226C7FEA236C6AD04FEA1262D2EB17
:100650001363C1BFD218414048404140B8BF5B421C
:10066000192B88BF704710F0004F40F4000020F0B5
:100670007F4018BF404211F0004F41F4000121F0CB
:100680007F4118BF494292EA030F3FD0A2F1010215
:1006900041FA03FC10EB0C00C3F1200301FA03F153
:1006A00000F0004302D5494260EB4000B0F5000F76
:1006B00013D3B0F1807F06D340084FEA310102F135
:1006C0000102FE2A51D2B1F1004F40EBC25008BFE7
:1006D00020F0010040EA03007047490040EB0000B1
:1006E000013A28BFB0F5000FEDD2B0FA80FCACF1B2
:1006F000080CB2EB0C0200FA0CF0AABF00EBC250DF
:1007000052421843BCBFD0401843704792F0000FCC
:1007100081F4000106BF80F400000132013BB5E71F
:100720004FEA41037FEA226C18BF7FEA236C21D095
:1007300092EA030F04D092F0000F08BF08467047FA
:1007400090EA010F1CBF0020704712F07F4F04D1C8
:10075000400028BF40F00040704712F100723CBFDB
:1007600000F50000704700F0004343F0FE4040F405
:10077000000070477FEA226216BF08467FEA2363C3
:100780000146420206BF5FEA412390EA010F40F4AE
:10079000800070474FF0000304E000BF10F00043FA
:1007A00048BF40425FEA000C08BF704743F09643E1
:1007B00001464FF000001CE050EA010208BF7047FC
:1007C0004FF000030AE000BF50EA010208BF704783
:1007D00011F0004302D5404261EB41015FEA010C98
:1007E00002BF84460146002043F0B64308BFA3F190
:1007F0008053A3F50003BCFA8CF2083AA3EBC25372
:1008000010DB01FA02FC634400FA02FCC2F1200290
:10081000BCF1004F20FA02F243EB020008BF20F0C7
:100820000100704702F1200201FA02FCC2F120022D
:1008300050EA4C0021FA02F243EB020008BF20EA22
:10084000DC7070474FF0FF0C1CEAD0521EBF1CEA50
:10085000D15392EA0C0F93EA0C0F6FD01A4480EA3E
:10086000010C400218BF5FEA41211ED04FF0006327
:1008700043EA501043EA5111A0FB01310CF0004053
:10088000B1F5000F3EBF490041EAD3715B0040EA79
:10089000010062F17F02FD2A1DD8B3F1004F40EB49
:1008A000C25008BF20F00100704790F0000F0CF01C
:1008B000004C08BF49024CEA502040EA51207F3AE0
:1008C000C2BFD2F1FF0340EAC250704740F40000BB
:1008D0004FF00003013A5DDC12F1190FDCBF00F0AC
:1008E00000407047C2F10002410021FA02F1C2F15A
:1008F000200200FA02FC5FEA310040F1000053EAF6
:100900004C0308BF20EADC70704792F0000F00F043
:10091000004C02BF400010F4000F013AF9D040EA49
:100920000C0093F0000F01F0004C02BF490011F4DD
:10093000000F013BF9D041EA0C018FE70CEAD153DB
:1009400092EA0C0F18BF93EA0C0F0AD030F0004C5B
:1009500018BF31F0004CD8D180EA010000F000400F
:10096000704790F0000F17BF90F0004F084691F0CD
:10097000000F91F0004F14D092EA0C0F01D1420207
:100980000FD193EA0C0F03D14B0218BF084608D1D0
:1009900080EA010000F0004040F0FE4040F400001A
:1009A000704740F0FE4040F4400070474FF0FF0CAD
:1009B0001CEAD0521EBF1CEAD15392EA0C0F93EAF4
:1009C0000C0F69D0A2EB030280EA010C49024FEA46
:1009D000402037D04FF0805343EA111143EA1013FF
:1009E0000CF000408B4238BF5B0042F17D024FF4B7
:1009F000000C8B4224BF5B1A40EA0C00B3EB510F92
:100A000024BFA3EB510340EA5C00B3EB910F24BF7A
:100A1000A3EB910340EA9C00B3EBD10F24BFA3EBFF
:100A2000D10340EADC001B0118BF5FEA1C1CE0D1C7
:100A3000FD2A3FF650AF8B4240EBC25008BF20F07A
:100A4000010070470CF0004C4CEA50207F32C2BFCE
:100A5000D2F1FF0340EAC250704740F400004FF06B
:100A60000003013A37E792F0000F00F0004C02BF9C
:100A7000400010F4000F013AF9D040EA0C0093F066
:100A8000000F01F0004C02BF490011F4000F013BC0
:100A9000F9D041EA0C0195E70CEAD15392EA0C0F28
:100AA00008D142027FF47DAF93EA0C0F7FF470AF60
:100AB000084676E793EA0C0F04D14B023FF44CAFA3
:100AC00008466EE730F0004C18BF31F0004CCAD138
:100AD00030F000427FF45CAF31F000437FF43CAF74
:100AE0005FE700BF4FF0FF3C06E000BF4FF0010C96
:100AF00002E000BF4FF0010C4DF804CD4FEA400278
:100B00004FEA41037FEA226C18BF7FEA236C11D0C1
:100B100001B052EA530C18BF90EA010F58BFB2EB74
:100B2000030088BFC81738BF6FEAE17018BF40F0F4
:100B3000010070477FEA226C02D15FEA402C05D1A8
:100B40007FEA236CE4D15FEA412CE1D05DF8040B2D
:100B5000704700BF844608466146FFE70FB5FFF7C0
:100B6000C9FF002848BF10F1000F0FBD4DF808ED78
:100B7000FFF7F4FF0CBF012000205DF808FB00BF69
:100B80004DF808EDFFF7EAFF34BF012000205DF8C3
:100B900008FB00BF4DF808EDFFF7E0FF94BF012010
:100BA00000205DF808FB00BF4DF808EDFFF7D2FF0D
:100BB00094BF012000205DF808FB00BF4DF808ED50
:100BC000FFF7C8FF34BF012000205DF808FB00BF1D
:100BD0004FEA4002B2F1FE4F0FD34FF09E03B3EB4A
:100BE00012620DD94FEA002343F0004310F0004F8A
:100BF00023FA02F018BF404270474FF000007047E0
:100C000012F1610F01D1420205D110F0004008BF7E
:100C10006FF0004070474FF000007047844641EA93
:100C2000000313F0030349D1403A23D30B68036058
:100C30004B6843608B688360CB68C3600B6903615A
:100C40004B6943618B698361CB69C3610B6A036242
:100C50004B6A43628B6A8362CB6AC3620B6B03632A
:100C60004B6B43638B6B8363CB6BC363403040310F
:100C7000403ADBD230320BD30B6803604B684360E1
:100C80008B688360CB68C36010301031103AF3D2A8
:100C90000C3205D351F8043B40F8043B043AF9D236
:100CA000043208D0D2071CBF11F8013B00F8013B09
:100CB00001D30B8803806046704700BF082A13D316
:100CC0008B07B1D010F00303AED0C3F10403D21AE6
:100CD000DB071CBF11F8013B00F8013BA4D331F83E
:100CE000023B20F8023B9FE7043AD9D3013A11F8BE
:100CF000013B00F8013BF9D20B7803704B7843704D
:100D00008B7883706046704770B54FF0FF0C4CF4E1
:100D1000E06C1CEA11541DBF1CEA135594EA0C0F39
:100D200095EA0C0F00F0DEF82C4481EA030621EA74
:100D30004C5123EA4C5350EA013518BF52EA0335AF
:100D400041F4801143F4801338D0A0FB02CE4FF061
:100D50000005E1FB02E506F00042E0FB03E54FF091
:100D60000006E1FB03569CF0000F18BF4EF0010E89
:100D7000A4F1FF04B6F5007F64F5407404D25FEA85
:100D80004E0E6D4146EB060642EAC62141EA555138
:100D90004FEAC52040EA5E504FEACE2EB4F1FD0C7A
:100DA00088BFBCF5E06F1ED8BEF1004F08BF5FEAF8
:100DB000500E50F1000041EB045170BD06F00046AA
:100DC00046EA010140EA020081EA0301B4EB5C0457
:100DD000C2BFD4EB0C0541EA045170BD41F480114F
:100DE0004FF0000E013C00F3AB8014F1360FDEBF74
:100DF000002001F0004170BDC4F10004203C35DA50
:100E00000C341BDC04F11404C4F1200500FA05F3D2
:100E100020FA04F001FA05F240EA020001F0004273
:100E200021F0004110EBD37021FA04F642EB0601E9
:100E30005EEA430E08BF20EAD37070BDC4F10C0413
:100E4000C4F1200500FA04F320FA05F001FA04F2D7
:100E500040EA020001F0004110EBD37041F10001C3
:100E60005EEA430E08BF20EAD37070BDC4F12005CE
:100E700000FA05F24EEA020E20FA04F301FA05F236
:100E800043EA020321FA04F001F0004121FA04F2DE
:100E900020EA020000EBD3705EEA430E08BF20EAAE
:100EA000D37070BD94F0000F0FD101F000464000E8
:100EB00041EB010111F4801F08BF013CF7D041EA6A
:100EC000060195F0000F18BF704703F0004652006E
:100ED00043EB030313F4801F08BF013DF7D043EA3F
:100EE0000603704794EA0C0F0CEA135518BF95EAF5
:100EF0000C0F0CD050EA410618BF52EA4306D1D17C
:100F000081EA030101F000414FF0000070BD50EA9A
:100F1000410606BF1046194652EA430619D094EA24
:100F20000C0F02D150EA013613D195EA0C0F05D10E
:100F300052EA03361CBF104619460AD181EA030162
:100F400001F0004141F0FE4141F470014FF000001A
:100F500070BD41F0FE4141F4780170BD70B54FF0B5
:100F6000FF0C4CF4E06C1CEA11541DBF1CEA135535
:100F700094EA0C0F95EA0C0F00F0A7F8A4EB050417
:100F800081EA030E52EA03354FEA013100F088800E
:100F90004FEA03334FF0805545EA131343EA1263D7
:100FA0004FEA022245EA111545EA10654FEA00268C
:100FB0000EF000419D4208BF964244F1FD0404F545
:100FC000407402D25B084FEA3202B61A65EB0305A1
:100FD0005B084FEA32024FF480104FF4002CB6EB5E
:100FE000020E75EB030E22BFB61A754640EA0C00DE
:100FF0005B084FEA3202B6EB020E75EB030E22BF1E
:10100000B61A754640EA5C005B084FEA3202B6EB5E
:10101000020E75EB030E22BFB61A754640EA9C001D
:101020005B084FEA3202B6EB020E75EB030E22BFED
:10103000B61A754640EADC0055EA060E18D04FEAAB
:10104000051545EA16754FEA06164FEAC30343EA4B
:1010500052734FEAC2025FEA1C1CC0D111F4801F18
:101060000BD141EA00014FF000004FF0004CB6E711
:1010700011F4801F04BF01430020B4F1FD0C88BFB0
:10108000BCF5E06F3FF6AFAEB5EB030C04BFB6EBBB
:10109000020C5FEA500C50F1000041EB045170BDAE
:1010A0000EF0004E4EEA113114EB5C04C2BFD4EBDB
:1010B0000C0541EA045170BD41F480114FF0000E5F
:1010C000013C90E645EA060E8DE60CEA135594EADB
:1010D0000C0F08BF95EA0C0F3FF43BAF94EA0C0FDE
:1010E0000AD150EA01347FF434AF95EA0C0F7FF453
:1010F00025AF104619462CE795EA0C0F06D152EAA7
:1011000003353FF4FDAE1046194622E750EA41068A
:1011100018BF52EA43067FF4C5AE50EA41047FF49B
:101120000DAF52EA43057FF4EBAE12E74FEA410CF4
:101130007FEA6C5C02D150EA013C0AD14FEA430CD1
:101140007FEA6C5C02D152EA033C02D14FF000000E
:1011500070474FF00100704753B94AB9002908BFE2
:1011600000281CBF4FF0FF314FF0FF3000F076B980
:10117000ADF1080C6DE904CE00F006F8DDF804E0EE
:10118000DDE9022304B070472DE9F047089E0D46C3
:1011900004468846002B4DD18A42944668D9B2FA5B
:1011A00082F252B101FA02F3C2F1200120FA01F1F8
:1011B0000CFA02FC41EA030894404FEA1C41B8FBD8
:1011C000F1F71FFA8CFE01FB178807FB0EF0230CCA
:1011D00043EA084398420AD91CEB030307F1FF35A1
:1011E00080F01E81984240F21B81023F63441B1A2B
:1011F000B3FBF1F001FB103300FB0EFEA4B244EA96
:101200000344A6450AD91CEB040400F1FF3380F027
:101210000981A64540F20681644402380021A4EB0E
:101220000E0440EA07401EB10023D440C6E9004343
:10123000BDE8F0878B4208D9002E00F0EE80002137
:10124000C6E900050846BDE8F087B3FA83F1002936
:101250004AD1AB4202D3824200F2FC80841A65EB91
:10126000030301209846002EE2D0C6E90048DFE7DC
:1012700002B9FFDEB2FA82F2002A40F09180A1EBBF
:101280000C0001214FEA1C471FFA8CFEB0FBF7F35C
:1012900007FB1300250C45EA00450EFB03F0A842AE
:1012A00008D91CEB050503F1FF3802D2A84200F271
:1012B000CE8043462D1AB5FBF7F007FB10550EFB09
:1012C00000FEA4B244EA0544A64508D91CEB040478
:1012D00000F1FF3502D2A64500F2B6802846A4EB05
:1012E0000E0440EA03409EE7C1F120078B4022FA3A
:1012F00007FC4CEA030C25FA07FA4FEA1C49BAFB33
:10130000F9F820FA07F309FB18AA8D401FFA8CFEA2
:101310001D4300FA01F308FB0EF02C0C44EA0A44CA
:10132000A04202FA01F20BD91CEB040408F1FF3AC7
:1013300080F08880A04240F28580A8F102086444D1
:10134000241AB4FBF9F009FB104400FB0EFEADB209
:1013500045EA0444A64508D91CEB040400F1FF3516
:101360006CD2A6456AD90238644440EA0840A0FB22
:101370000295A4EB0E04AC42C846AE4656D353D0F9
:10138000002E69D0B3EB080264EB0E0422FA01F3DD
:1013900004FA07F71F43CC40C6E90074002147E771
:1013A0000CFA02FCC2F1200125FA01F34FEA1C47B6
:1013B00020FA01F195400D43B3FBF7F107FB113320
:1013C0001FFA8CFE280C40EA034001FB0EF3834217
:1013D00004FA02F408D91CEB000001F1FF382FD207
:1013E00083422DD902396044C01AB0FBF7F307FBE2
:1013F0001300ADB245EA004503FB0EF0A84208D940
:101400001CEB050503F1FF3816D2A84214D9023BA4
:101410006544281A43EA014138E73146304607E778
:101420002F46E4E61846F9E64B45A9D2B9EB020887
:1014300065EB0C0E0138A3E74346EAE7284694E73C
:101440004146D1E7D0467BE76444023847E7023B98
:1014500065442FE7084606E73146E9E6704700BFD6
:1014600000B587B00C4B9A6942F008029A619B69FB
:1014700003F008030193019B4FF4C143029300233F
:101480000393012304930323059302A9034802F065
:10149000F5FD07B05DF804FB00100240000C0140B0
:1014A00008B501281CD0214B1B782BB34FF40051F9
:1014B0001F4802F0F5FE28B14FF480411C4802F0AD
:1014C000EFFEC8B90A2002F08FF9184B00221A70FB
:1014D0004FF40051164802F0E3FE28B9012013E052
:1014E000124B01221A70DEE74FF48041104802F0DF
:1014F000D7FEC0B1002007E04FF400510C4802F0C5
:10150000CFFE012801D0002008BD4FF480410848DB
:1015100002F0C6FE012801D00020F5E7034B0122AE
:101520001A700020F0E70220EEE700BF0100002063
:10153000000C014010B5012812D0134B1B782BB1C1
:101540008021124802F0ACFE044668B180210F48A9
:1015500002F0A6FE0446A0B90B4B01221A7011E05E
:10156000094B01221A70E8E70A2002F03DF9064B08
:1015700000221A708021054802F092FE10B903245F
:1015800000E00024204610BD00000020000C0140B7
:1015900008B5002202F08BFE08BD08B5012202F05A
:1015A00086FE08BD2DE9F84381460F46154698464C
:1015B000BDF82060013B013A9BB292B200F0D8FC2A
:1015C00008E0304600F0B8FC0134A4B2AC42F8D3D5
:1015D0000137BFB2474501D24C46F7E7BDE8F88373
:1015E00010B50B461446024600F0C2FC204600F03F
:1015F000A3FC10BD2DE9F04F85B0BDF83840019433
:101600008046A2EB000A8946A3EB010BBAF1000F5A
:101610000DDD01220292BBF1000F14DD01230393C3
:10162000DA451CDD564600252F462C461BE0BAF154
:10163000000F05D0A0EB020A4FF0FF320292EAE75A
:10164000CDF808A0E7E7BBF1000F05D0A1EB030B35
:101650004FF0FF330393E3E7CDF80CB0E0E75E46CD
:10166000E1E70134A4B2B44213DC019A1FFA89F114
:101670001FFA88F0FFF7B4FF57445D44BE4202DA18
:10168000BF1B029B9844AE42EBDAAD1B039B99440F
:10169000E7E705B0BDE8F08F2DE9F04F89B006907F
:1016A000039100920193BDF8483002939DF84C805D
:1016B0009DF850B018F0070318BF012303EBD803BF
:1016C0001FFA88F2059208FB03F3049307460025EE
:1016D0002E464AE0029800F02FFC0136F6B2B6FB27
:1016E000F8F308FB136313F0FF0338D00134E4B2BE
:1016F000072C23D86DB9334B1A2202FB0A334B4413
:101700009B78234113F0010FE4D0019800F014FC02
:10171000E3E72C4B1A2202FB0A334B449B7823410C
:1017200013F0010F15D10137BFB2A7EB0B034345EF
:10173000DCD1039B01339BB203935F4609F101099E
:101740005FFA89F91FFA89F3049A934209D20024B7
:10175000CEE7019A03993846FFF742FFE3E71E46BA
:10176000ECE7AB46079D0135ADB2042D26D8AA465D
:101770001A2305FB03F3134AD25C009B1B789A42A1
:10178000F1D1104B1A2202FB05335A78009B5B788B
:101790009A42E8D1059BDA1992B203990B449BB2A5
:1017A000013B013A9BB292B2384600F0E1FB4FF0A8
:1017B000000907955D46DDF818B0C3E709B0BDE83C
:1017C000F08F00BFFC0601082DE9F04F8BB00690AA
:1017D000039193460193BDF8503002939DF85490C5
:1017E0009DF85830079319F0070318BF012303EB46
:1017F000D9031FFA89F2059209FB03F30493074604
:1018000000252E464DE0029800F096FB0136F6B218
:10181000B6FBF9F309FB136313F0FF033AD001346D
:10182000E4B2072C25D875B908EB0813344A02EB4B
:10183000430353449B78234113F0010FE3D00198F5
:1018400000F07AFBE2E708EB08132D4A02EB4303B2
:1018500053449B78234113F0010F15D10137BFB2D8
:10186000A7EB0B034B45DAD1039B01339BB20393E8
:101870005F460AF1010A5FFA8AFA1FFA8AF3049AAC
:10188000934209D20024CCE7019A03993846FFF726
:10189000A7FEE3E71E46ECE7089DDDF824B001351E
:1018A000ADB20A2D29D8A84605EB0513144A12F843
:1018B00013209BF800309A42F1D105EB0513104A32
:1018C00002EB43035A789BF801309A42E7D1059B1B
:1018D000DA1992B203990B449BB2013B013A9BB2D5
:1018E00092B2384600F044FB4FF0000A0895CDF85C
:1018F00024B0DDF818B0079DBFE70BB0BDE8F08F4E
:10190000800701082DE9F04F8BB0069003919346B4
:101910000193BDF8503002939DF854809DF85830E3
:10192000079318F0070318BF012303EBD8031FFA2E
:1019300088F2059208FB03F30493074600252E4620
:101940004BE0029800F0F8FA0136F6B2B6FBF8F375
:1019500008FB136313F0FF0338D00134E4B2072C03
:1019600023D86DB9344B4A2202FB0A334B449B788F
:10197000234113F0010FE4D0019800F0DDFAE3E712
:101980002D4B4A2202FB0A334B449B78234113F030
:10199000010F15D10137BFB2A7EB0B034345DCD1D3
:1019A000039B01339BB203935F4609F101095FFA80
:1019B00089F91FFA89F3049A934209D20024CEE7E9
:1019C000019A03993846FFF70BFEE3E71E46ECE762
:1019D000089DDDF824B00135ADB2082D28D8AA46FF
:1019E0004A2305FB03F3144AD25C9BF800309A4269
:1019F000F1D1114B4A2202FB05335A789BF8013092
:101A00009A42E8D1059BDA1992B203990B449BB232
:101A1000013B013A9BB292B2384600F0A9FA4FF06E
:101A200000090895CDF824B0DDF818B0079DC0E78F
:101A30000BB0BDE8F08F00BFF80801082DE9F04FAA
:101A40008BB00890039193460193BDF850300293F8
:101A50009DF854A09DF8583009931AF0070318BF59
:101A6000012303EBDA031FFA8AF207920AFB03F35E
:101A70000493074600252E464DE0029800F05CFADC
:101A80000136F6B2B6FBFAF30AFB136313F0FF0359
:101A90003AD00134E4B2072C25D875B908EB881385
:101AA000344A02EB43034B449B78234113F0010F6C
:101AB000E3D0019800F040FAE2E708EB88132D4AE2
:101AC00002EB43034B449B78234113F0010F15D1E4
:101AD0000137BFB2A7EB0B035345DAD1039B0133A8
:101AE0009BB203935F4609F101095FFA89F91FFA76
:101AF00089F3049A934209D20024CCE7019A03990E
:101B00003846FFF76DFDE3E71E46ECE7059DDDF87F
:101B100018B00135ADB22E2D29D8A84605EB851396
:101B2000144A12F813209BF800309A42F1D105EBC9
:101B30008513104A02EB43035A789BF801309A420E
:101B4000E7D1079BDA1992B203990B449BB2013B90
:101B5000013A9BB292B2384600F00AFA4FF00009FF
:101B60000595CDF818B0DDF820B0099DBFE70BB0A2
:101B7000BDE8F08F940B01082DE9F04784B00446CE
:101B8000884616461F46BDF830A09DF834509DF893
:101B900038900DE0CDF808900195CDF800A03B46B7
:101BA000324641462046FFF777FD02362C44A4B268
:101BB00032785AB30C2DEDD0102D0FD0182D19D02E
:101BC000202D23D1CDF808900195CDF800A03B46FB
:101BD000324641462046FFF731FFE6E7CDF8089050
:101BE0000195CDF800A03B46324641462046FFF71E
:101BF000EBFDDAE7CDF808900195CDF800A03B4663
:101C0000324641462046FFF77DFECEE704B0BDE8F0
:101C1000F08700002DE9F04F87B0834603910093D1
:101C2000BDF8403002939DF844301D4601939DF865
:101C300048905F0813F00E0318BF012303EB151340
:101C400005FB03F30493203AD3B205932B4600EB34
:101C5000550292B20B449BB2013B013A9BB292B245
:101C600000F086F95E464FF0000A554649E0059BB4
:101C700003EB4303334A02EB830313F80A80002487
:101C80001DE0314B059A03EB021313F80A80F6E7C7
:101C9000059B03EB43032D4A02EB031313F80A8061
:101CA000EDE7029800F048F90135EDB2B5FBF7F326
:101CB00007FB135313F0FF033FD00134E4B2072CAA
:101CC0001BD8B9F1000F08D148FA04F313F0010F43
:101CD000E7D0009800F030F9E6E748FA04F313F093
:101CE000010F24D10136B6B2A6EB0B03BB42E4D1FF
:101CF000039B01339BB203935E460AF1010A1FFA6C
:101D00008AFA049B9A451AD2019B0C2BAFD0019BF7
:101D1000102BB6D0019B182BBAD0019B202B0ED1D3
:101D20000B4B059A03EB821313F80A80A7E7009A7E
:101D300003993046FFF754FCD4E71D46DDE707B0B2
:101D4000BDE8F08F08D300087CD700086CDD0008E0
:101D50003CEF00082DE9F04784B00446884615465C
:101D60001F46BDF830A09DF834609DF838900DE016
:101D7000CDF808900196CDF800A03B46414620469C
:101D8000FFF748FF04EB5604A4B201352A78002A75
:101D9000EED104B0BDE8F0870246012002E002FB6C
:101DA00000F019464B1EDBB20029F8D17047000045
:101DB0002DE9F04F87B08046049117461D46BDF8C7
:101DC00040300593BDF844B09DF848904FEA590A59
:101DD000002634461FE004FB0A8000230293CDF85E
:101DE0000490CDF800B0059B2022049980B2FFF743
:101DF00011FF0EE0303204FB0A8000230293CDF87D
:101E00000490CDF800B0059BD2B2049980B2FFF7E0
:101E100001FF0134E4B2AC421AD2291BC9B2013924
:101E2000C9B20A20FFF7B8FFB7FBF0F00A4AA2FBDD
:101E30000032D20802EB8202A0EB4202D2B2002EA4
:101E4000D8D16B1E9C42D5DA002AC4D00126D1E736
:101E500007B0BDE8F08F00BFCDCCCCCC2DE9F04170
:101E600086B01A4B9A6942F004029A619A6902F0AC
:101E700004020092009A9A6942F008029A619B69F2
:101E800003F008030193019B4FF0B008CDF80880E0
:101E900001240394032305930D4F02A9384602F051
:101EA000EDF840F2034602960A4D02A9284602F0D8
:101EB000E5F822464146384602F0F9F92246314615
:101EC000284602F0F4F906B0BDE8F08100100240A7
:101ED00000080140000C014038B5044601211248B9
:101EE000FFF756FB00250BE080211048FFF750FB61
:101EF00020210E48FFF751FB6400E4B20135EDB23A
:101F0000072D0BD820210948FFF742FB14F0800F62
:101F1000EAD080210548FFF740FBE9E701210248AC
:101F2000FFF73BFB38BD00BF000C0140000801403B
:101F300008B5FFF7D1FF08BD10B50446000AFFF74A
:101F4000CBFFE0B2FFF7C8FF10BD000038B5044674
:101F5000064D10212846FFF71BFB2046FFF7BCFF6C
:101F600010212846FFF719FB38BD00BF00080140CB
:101F7000F8B507460D4616461C462A20FFF7E6FF31
:101F80003846FFF7D9FF3046FFF7D6FF2B20FFF783
:101F9000DDFF05F1140080B2FFF7CEFF04F114005D
:101FA00080B2FFF7C9FF2C20FFF7D0FFF8BD00007B
:101FB00010B5FFF753FF644C02212046FFF7E8FA03
:101FC000642001F011FC02212046FFF7E6FA6420AC
:101FD00001F00AFC4FF480612046FFF7DEFA64202E
:101FE00001F002FC1120FFF7B1FF782001F0FCFBAB
:101FF0003620FFF7ABFF0020FFF79AFF3A20FFF7EC
:10200000A5FF0520FFF794FFB220FFF79FFF0C20EC
:10201000FFF78EFF0C20FFF78BFF0020FFF788FFF4
:102020003320FFF785FF3320FFF782FFB720FFF74C
:102030008DFF3520FFF77CFFBB20FFF787FF3220A5
:10204000FFF776FFC220FFF781FF0120FFF770FF47
:10205000C320FFF77BFF1520FFF76AFFC420FFF7BF
:1020600075FF2020FFF764FFC620FFF76FFF0F20EA
:10207000FFF75EFFD020FFF769FFA420FFF758FFAE
:10208000A120FFF755FFE020FFF760FFD020FFF70A
:102090004FFF0820FFF74CFF0E20FFF749FF0920F4
:1020A000FFF746FF0920FFF743FF0520FFF740FF3A
:1020B0003120FFF73DFF3320FFF73AFF4820FFF7BD
:1020C00037FF1720FFF734FF1420FFF731FF1520EB
:1020D000FFF72EFF3120FFF72BFF3420FFF728FFFB
:1020E000E120FFF733FFD020FFF722FF0820FFF7A2
:1020F0001FFF0E20FFF71CFF0920FFF719FF092023
:10210000FFF716FF1520FFF713FF3120FFF710FF31
:102110003320FFF70DFF4820FFF70AFF1720FFF7D6
:1021200007FF1420FFF704FF1520FFF701FF312000
:10213000FFF7FEFE3420FFF7FBFE2120FFF706FF2E
:102140002920FFF703FF10BD000C0140013840EAD1
:10215000600040EAA00040EA201040EA202040EA67
:1021600020400130704701604860704710B5064B51
:102170001B6828209847044618B12822002103F044
:10218000D7FA204610BD00BF0800002070B50446F5
:1021900030B30568C5B1836858186268824215DAA1
:1021A000FFF7D4FF06460F4B1B689847054678B1EA
:1021B00062682168FEF732FD0B4B1B682068984768
:1021C00066602560A3681D44284670BD1D44FBE77A
:1021D000054B1B6820689847002363602360F3E782
:1021E0000546F1E7080000200400002070B5054610
:1021F00003F036FD441C064B1B68204698470646F4
:1022000018B122462946FEF709FD304670BD00BFD1
:102210000800002048B10346006840B110B59C6832
:10222000204403F01DFD204410BD00207047002015
:102230007047000000000000F8B505460C468669AE
:10224000C7690022002330463946FEF793F988B16A
:1022500054B102212046FFF799FF044614B1504BB8
:102260001B8823802046F8BD4E4B1B6802209847F0
:102270000446F3E76869FEF7BDF832463B46FDF7D2
:102280006BFF86468C460022474B70462CF000417F
:10229000FEF784F910B33AA3D3E900233046394658
:1022A000FEF77CF9D0B10022404B30463946FEF7AC
:1022B0007FF998B164B115212046FFF767FF044606
:1022C000002CCFD06A693A49204603F0E3FBC9E706
:1022D000344B1B68152098470446F1E7002C3AD090
:1022E00040212046FFF752FF0446002CBAD030466A
:1022F00039460AF081FF32463B46FDF72DFF844602
:102300000D460022284B604625F00041FEF746F9B5
:1023100040B11DA3D3E90023304627F00041FEF76A
:1023200033F9F0B927F0004519A3D3E9002330466B
:102330002946FEF729F938B917A3D3E90023304617
:102340002946FEF73FF998B132463B4619492046E7
:1023500003F0A0FB86E7134B1B6840209847044618
:10236000C3E732463B461449204603F093FB79E726
:1023700032463B461149204603F08CFB72E700BF12
:102380000000C0FFFFFFDF4144F3C2E4E4E9634C17
:102390008DEDB5A0F7C6B03E0000000065CDCD4183
:1023A0008C230108080000200000B03C0000E0C1C0
:1023B000902301089C23010894230108A02301080D
:1023C0002DE9F84305460E468446002405E0012326
:1023D00000E001231C430CF1010C9CF800305BB1C0
:1023E0005A1ED2B21E2AF4D9222B03D05C2BEED077
:1023F0000023EFE70123EDE70CBBACEB0504C6B10E
:10240000E11C3046FFF7C2FE06467EB137464FF06C
:10241000220807F8018B2946384603F0C3FB07F86A
:10242000048004F1010C002307F80C303046BDE8AD
:10243000F8834C4B1B68E01C98470646E5E715B14E
:10244000A846002418E066B103213046FFF79EFE3F
:102450000646002EEAD0444B1A889B783280B3702F
:10246000E4E7404B1B68032098470646F1E71F2F1F
:1024700010D8063408F1010898F800706FB114F113
:10248000010909D03946394803F026FB0028EED06F
:102490000234EFE74C46EDE74C46BEB1E11C304656
:1024A000FFF774FE0646002EC0D03446222304F8FF
:1024B000013B2B78002B50D01F2B0DD9222B0BD09A
:1024C0005C2B09D0013504F8013BF2E7254B1B6872
:1024D000E01C98470646E6E720465C2300F8013BEF
:1024E00015F8012B222A15D8082A31D3A2F10803A6
:1024F0001A2B2DD8DFE803F01828202C1C242C2CB4
:102500002C2C2C2C2C2C2C2C2C2C2C2C2C2C2C2C0B
:102510002C2C14005C2A1BD15C2363700234C8E7A6
:10252000222363700234C4E7622363700234C0E77D
:10253000662363700234BCE76E2363700234B8E72D
:10254000722363700234B4E7742363700234B0E71B
:10255000074903F09FFA0634ABE7222323700023D8
:10256000637063E708000020A4230108A823010882
:10257000B023010808B50069FFF722FF08BD00007D
:102580002DE9F04F87B08046009116461D468368BE
:10259000002701E001371B68002BFBD16FBB9DB109
:1025A00086B1009B191D2846FFF7F0FD044604B3D1
:1025B00023467B2203F8012BBEB1A31C0A226270C2
:1025C00000990FE00321EEE7A74B1B6826B1009AA4
:1025D000101D98470446EAE70320FAE7092203F8AA
:1025E000012B01374A1EBA42F8DC7D221A70002204
:1025F0005A70204607B0BDE8F08F002D00F09E8095
:10260000D5F808B0E6B14FF0020A0AF101012846F8
:10261000FFF7BCFD04460028EBD003467B2203F8FD
:10262000012B16B1831C0A22427000221A70AB687B
:102630005344AB60D8F80870009B03F101091BE01C
:102640004FF0010AE1E749462846FFF79FFD04469F
:102650000028CED0002303E0092204F8012B013327
:102660004B45F9DBAB684B44AB6009E000232370BA
:10267000AB684344AB603F68002F3FD0002EE2D1EF
:102680002946386AFFF79CFE2846FFF7C3FDA8607D
:1026900051462846FFF77AFD04460028A9D03A2380
:1026A00003700EB109234370AB685344AB602B46F3
:1026B00032464946384600F04DF92846FFF7AAFD54
:1026C000A8603B68B3F1000818BF4FF00108002E66
:1026D00018BF08F1010808F101012846FFF756FD6F
:1026E0000446002885D03B6813B12C2304F8013B35
:1026F000002EBBD00A2304F8013BB7E716B1009BBC
:10270000991C00E002212846FFF740FD04460028FE
:102710003FF46FAF76B97D232370002363702C687C
:102720005C4466E7092304F8013B0BF1010B934578
:10273000F8DBF0E74FF0000B009AF8E7BC004A4BDB
:102740001B68204698470590002800F0FE80464B05
:102750001B68204698470190D8B122460021059871
:1027600002F0E6FF22460021019802F0E1FFD8F8CE
:102770000850009B5A1C0392002E3ED003F1080A19
:102780000023049399460297DDF81480DDF804B025
:102790000BE0364B1B6805989847019C29E70023FE
:1027A0001F44BA440AF1020A2D684DB30021286A79
:1027B000FFF706FE04464FEA89074BF8290000237D
:1027C00032460399284600F0C5F848F8070009F199
:1027D000010964B170B103F043FA0746204603F0E3
:1027E0003FFA0744002EDAD0009B0333D8E70123D9
:1027F0000493D9E701230493D6E74FF0070ABFE714
:10280000029F049B4BBB184B1B68504698470446DD
:1028100018B305467B2305F8013B16B1851C0A2336
:10282000437000232B70DDF810800297DDF814B0A0
:10283000039F03943CE00134BC4219DAA60059F826
:10284000240010B1094B1B68984758F8060000286F
:10285000F1D0064B1B689847EDE70024DDF81480A3
:10286000DDF80490E8E700BF080000200400002025
:10287000374C2368019898472368059898472C4659
:10288000B7E6092205F8012B0133BB42F9DB14E05E
:10289000049BFAE700232B702D4C2368019A52F811
:1028A0000900984723685BF80900984708F1010878
:1028B000029B984532DA002EEAD14FEA8809019B43
:1028C00053F828A0504603F0CBF90446024651467F
:1028D0002846FEF7A3F92B1903F1010A3A222A55DB
:1028E0001EB103F1020A09225A705BF80910504622
:1028F00003F058F95BF8090003F0B2F90AEB0005A0
:10290000029B013B434503D001352C230AF80030DC
:10291000002EBFD00A2305F8013BBBE7039C0C4FF8
:102920003B68019898473B680598984726B97D23EE
:102930002B7000236B705CE6049B00998B42F6DAE7
:10294000092205F8012B0133F8E7059C51E600BF89
:10295000040000208446002800F0828008B5002B87
:1029600049D0007B062876D8DFE800F01220042E3C
:10297000353B400005211846FFF708FC844640B36C
:10298000384B1868CCF800001B798CF8043020E034
:1029900006211846FFF7FAFB8446D0B1324B18687F
:1029A000CCF800009B88ACF8043012E005211846F2
:1029B000FFF7ECFB844660B12C4B1868CCF80000A4
:1029C0001B798CF8043004E019466046FFF734FCAC
:1029D0008446604608BD19466046FFF7CBFD844635
:1029E000F7E7604600F044F88446F2E76046FFF7F8
:1029F000C7FD8446EDE7007B06282FD8DFE800F00E
:102A0000090E0413191F25001648FFF7EFFB844633
:102A1000DFE71548FFF7EAFB8446DAE71348FFF7DC
:102A2000E5FB8446D5E700216046FFF705FC8446B8
:102A3000CFE700216046FFF79DFD8446C9E70023EC
:102A4000604600F015F88446C3E700236046FFF7B0
:102A500097FD8446BDE74FF0000CBAE79C46B8E707
:102A6000704700BF742301087C23010884230108F8
:102A70002DE9F04F83B00646894615461F46836808
:102A8000002401E001341B68002BFBD194B1002F1E
:102A900064D0D7F808A001213846FFF777FB8046BD
:102AA000002800F0EA805B230370BB680133BB6041
:102AB000B4681FE087B103213846FFF767FB804603
:102AC000B8F1000F00F0D9806F4B1A889B78A8F8F6
:102AD000002088F80230D0E06C4B1B680320984738
:102AE0008046EDE7012617E000221A70BB683344E8
:102AF000BB60246814B33B462A4609F10101204615
:102B0000FFF728FF3846FFF785FBB8602368002BE6
:102B1000EFD0002DE6D00226711C3846FFF736FBB9
:102B20008046002800F0A98003462C2203F8012BE0
:102B3000002DD9D0831C20224270D5E702213846CF
:102B4000FFF724FB8046002800F097805D23037088
:102B500000234370386800EB0A088EE04FEA8408CF
:102B60004A4B1B68404698478246002800F08980FF
:102B70004246002102F0DCFDD6F808800026B3466C
:102B80000523009444469846019706E00023184424
:102B9000804408F102082468BB46A4B19EB9002312
:102BA0002A4609F101012046FFF7D4FE0BF1010787
:102BB0004AF82B0028B103F053F8002DE6D001238A
:102BC000E5E70126E7E7009C019FC6B92F4B1B688C
:102BD0004046984798B181465B2309F8013B0023A2
:102BE00043700090A0461BE0294B1B6898470135B5
:102BF000AC4206DD5AF825000028F5D1F7E700259C
:102C0000F6E7234B1B6850469847B84635E000234B
:102C100089F800301E4B1B685AF80B0098470136A4
:102C2000B0451EDD4FEA860B5AF82640204603F0D9
:102C300017F80746024621464846FDF7EFFF4F4486
:102C400008F1FF33B3420AD0B9462C2309F8013BFF
:102C5000002DDCD007F1020920237B70D7E7B946AD
:102C6000D8E7DDF800800A4B1B68504698475D2383
:102C700089F80030002389F80130404603B0BDE8F0
:102C8000F08F8046F9E700BFB82301080800002054
:102C90000400002038B5044616E0E36813F4807F92
:102CA00004D1206910B10F4B1B689847E36813F4F7
:102CB000007F04D1206A10B10A4B1B689847094B6A
:102CC0001B68204698472C4654B12568E36813F4E6
:102CD000807FE2D1A0680028DFD0FFF7DBFFDCE7D0
:102CE00038BD00BF0400002008B5002301221946AA
:102CF000FFF730FE08BD08B50346806859B10A46A3
:102D000010B9996007E0184610B10368002BFAD19A
:102D10001146FFF728FA08BD8AB170B506460C4681
:102D20001546106A10B1064B1B6898472046FFF7FE
:102D30005DFA286229463046FFF7DDFF70BD704717
:102D40000400002070B504460D46FFF70FFA064652
:102D500040B10323C360C0E9064520462946FDF77C
:102D60003BFC7061304670BD08B5FFF7FFF908B154
:102D70000623C36008BD10B582B000230193A524CB
:102D80008DF8044055238DF8053050238DF806301A
:102D90004A238DF8073004210DEB010000F0FEFD01
:102DA000642000F021FD8DF8044056238DF8053095
:102DB00002238DF80630FD238DF8073004210DEB3A
:102DC000010000F0EBFD642000F00EFD02B010BD2C
:102DD00070B505460E46FFF7C7FF04463046FDF7BF
:102DE000F9FAFFF7AFFF024629462046FFF794FFA6
:102DF0002046FFF779FF05460146054802F0F6FC3C
:102E00002046FFF747FF284602F0DEF970BD00BFFD
:102E1000BC23010870B584B0002400944623F0223E
:102E200019462046FEF7E6FB00948C23F022194653
:102E30002046FEF7DFFB0094D223F02219462046FD
:102E4000FEF7D8FB0294202601964FF6FF750095F9
:102E500023461F4A13211420FEF78EFE029401968A
:102E6000009523461B4A1321B420FEF773FF0294FA
:102E7000019600952346184A59211420FEF77CFE3E
:102E80000294019600952346144A5921B420FEF776
:102E900061FF0294019600952346114A9F21142058
:102EA000FEF76AFE0294019600954FF478430D4AAE
:102EB000E5212820FEF760FE029401960095234646
:102EC000094A9F215E20FEF757FE04B070BD00BF87
:102ED000C0230108C8230108CC230108D42301081A
:102EE000DC230108E4230108F023010870B584B055
:102EF00000240294202601964FF6FF750095234684
:102F0000484A13211420FEF737FE029401960095DB
:102F10002346454A59212820FEF72EFE02940196A9
:102F200000952346414A9F21AA20FEF713FF0294F1
:102F30000196009523463E4A9F214A20FEF70AFF4C
:102F40000AE03C4A1378013313700020FEF7F2FACE
:102F5000B8B9384B1B7833BB0021374B1868FDF7E5
:102F600005FEA0B10020FEF79BFA0128E9D0022857
:102F7000EBD1304B1B78002BE7D0013B2D4A13706F
:102F8000E3E72C4B1878FDF705FC2B4B18604FF648
:102F9000FF7300934FF48C73F02200210846FEF774
:102FA00001FB04B070BD00230293202301934FF670
:102FB000FF7300931E4A9F214A20FEF7CBFE1D4B54
:102FC0001A78092A13D9A2F10A03DBB2592B1BD9AB
:102FD000632AC1D9202302934FF6FF730193002384
:102FE000009303239F218A20FEF7E2FEB4E720230B
:102FF00002934FF6FF7301930023009301239F2157
:103000008A20FEF7D5FEA7E7202302934FF6FF7331
:1030100001930023009302239F218A20FEF7C8FE1C
:103020009AE700BFFC2301080424010810240108CA
:10303000142401085F0A0020200A002000B583B094
:10304000402000F0A9FB00F0E5FDFEF7B1FF4FF4D2
:1030500080612848FEF79CFA4FF6FF7300934FF407
:103060008C73F02200210846FEF79CFAFEF7F8F96F
:10307000214B1B786BB90120FEF75CFA0028F7D0D2
:103080004FF4FA6000F0B0FB0120FEF753FA00287D
:10309000EED04FF480611748FEF77FFA4FF4E1302D
:1030A00000F0AEFB4FF4E13000F0CAFB134800F033
:1030B0006FFEFFF760FE4FF6FF7300934FF48C73C3
:1030C000F02200210846FEF76DFA00210C4B18682B
:1030D000FDF74CFD40B90021094B1868FDF746FD8E
:1030E00028B103B05DF804FBFFF700FFF3E7FFF73B
:1030F00091FEF6E7000C0140600A0020B00A0020B3
:10310000200A0020224BB3F90210224B83FB01233B
:10311000CA17C2EB631212B2002AB8BF524292B26F
:10312000192A01D9002925DB0F2A03D9002901DD3D
:10313000452A25D9164BB3F90030164981FB030106
:10314000DB17C3EB61131BB2002BB8BF5B429BB212
:10315000A3F16A0189B2352914D9A3F1100189B20A
:103160003A2911D90F3B9BB2912B0FD8462A05D88B
:1031700000207047452AD7D80220704706207047A4
:1031800001207047052070470520704706207047D2
:10319000640A00201F85EB514E4B1B68B3F57A7F04
:1031A0000BD04C4B1A684C4BA3FB0213DB0803EB10
:1031B0008303B2EB430F04D07047464B00221A60E2
:1031C000EFE7F0B585B0454CB4F90000FDF7E6FA3D
:1031D0004349FDF7EBFBFDF7FBFC202702974FF679
:1031E000FF7601964FF478450095022382B21321B1
:1031F0007420FEF7DDFDB4F90000FDF7CFFA384981
:10320000FDF7D4FBFDF7E4FC81B23648FFF7E0FDA3
:10321000354C02970196009502232278592174209B
:10322000FEF7C6FD21783148FFF7D2FDFFF76AFFB0
:10323000012801D0022848D12D4BB3F902302D4985
:1032400081FB0321DA17C2EB611212B2002AB8BF68
:103250005242202302934FF6FF7301934FF47843B9
:103260000093022392B2E5214820FEF7A1FDFFF76B
:1032700049FF012805D0FFF745FF022813D005B00C
:10328000F0BD1B4BB3F902301A4A82FB0312D91767
:10329000C1EB621109B20029B8BF494289B2164890
:1032A000FFF796FDE7E7124BB3F90230114A82FBB4
:1032B0000312D917C1EB621109B20029B8BF494204
:1032C00089B20E48FFF784FDD9E700210C48FFF7CB
:1032D0007FFDD4E7740A0020CDCCCCCC240A00209A
:1032E0000000C842182401080C0000201C2401081A
:1032F000640A00201F85EB512024010828240108BE
:10330000302401080023164A137018E0154A32F9D8
:103310001310154A22F81310144A32F91310144AE4
:1033200022F81310134A32F91310134A22F813101B
:10333000124A32F91310124A22F813100133022BE9
:10334000E4DD0E4BB3F908200D4B1A810D4B1A88A2
:103350000D4B1A800D4B1A880D4B1A80704700BF19
:103360000D000020640A00206C0A0020E4090020FF
:10337000EC090020F8090020000A0020100A0020B3
:10338000180A0020240A0020260A0020F209002042
:10339000F409002070B584B00138052812D8DFE8A0
:1033A00000F0223B11110313002302932023019309
:1033B0004FF6FF7300934FF47843244A9F215E2019
:1033C000FEF7DAFB04B070BD0023029320230193C3
:1033D0004FF6FF7300934FF478431D4A9F215E2000
:1033E000FEF7CAFBEEE700260296202501954FF670
:1033F000FF7400944FF47843164A9F215E20FEF735
:10340000BBFB0296019500944FF47843124AE521E4
:103410002820FEF79FFCD5E700260296202501957F
:103420004FF6FF7400944FF478430A4A9F215E20C0
:10343000FEF7A2FB0296019500944FF47843064AEA
:10344000E5212820FEF786FCBCE700BF34240108F4
:10345000402401084C2401085824010870B584B0A8
:10346000FFF750FE18B300260296202501954FF66F
:10347000FF7400942346224AE5212820FEF77CFBB6
:1034800002960195009423461E4A9F215E20FEF776
:1034900073FBFFF737FEFFF77DFFFFF733FE0138C1
:1034A00005281BD8DFE800F021261A1A161C002474
:1034B0000294202301934FF6FF7300934FF4FC63B3
:1034C000104A9F215E20FEF757FB21460E48FFF76A
:1034D0007FFCDEE705210C48FFF77AFC04B070BDE5
:1034E00006210948FFF774FCF8E701210648FFF7B9
:1034F0006FFCF3E702210448FFF76AFCEEE700BF28
:10350000E4230108F02301085C24010838B55D4B71
:103510001B7803B938BD5B4B00221A705A4800F083
:103520004BFA0028F6D0594B00221A70564B9B7864
:1035300013F0010F13D0544A1179507940EA012059
:10354000534908809479D07940EA04204880107A61
:10355000527A42EA00228A804C4A0621117013F006
:10356000020F22D0494C2278101D4749085C551D96
:1035700011F805C04CEA002C4648A0F800C002F142
:10358000060E11F80E5002F1070C11F80CC04CEAAF
:10359000052CA0F802C002F108054D5D09328A5CD5
:1035A00042EA0522828084F800E013F0040F22D062
:1035B000364C2278101D3449085C551D11F805C0A1
:1035C0004CEA002C3448A0F800C002F1060E11F8B5
:1035D0000E5002F1070C11F80CC04CEA052CA0F8B3
:1035E00002C002F108054D5D09328A5C42EA0522FB
:1035F000828084F800E013F0100F23D0234C22784F
:10360000101D2149085C551D11F805C04CEA002C1D
:103610002248A0F800C002F1060E11F80E5002F187
:10362000070C11F80CC04CEA052CA0F802C002F1FE
:10363000080C11F80CC009328A5C42EA0C22828024
:1036400084F800E013F0400F0CD010490B781A1DDD
:103650000D48845C5A1D825C42EA042210480280B4
:1036600002330B700F4B1B78052B02D801330D4A28
:1036700013700C4B1B78042B7FF44CAFFFF742FE0A
:1036800048E700BF190C00202C0A0020280A00205F
:10369000E4090020F8090020080A0020640A00203C
:1036A000240A00200D00002010B52D4B1A88B3F914
:1036B0000030002B2BDB2B4A138801339BB2138085
:1036C000294AA2FB0312120B41F2883101FB12338B
:1036D0009BB2002B34D0234B1B88244AA2FB03123D
:1036E0009209C82101FB12339BB2002B2FD01D4B36
:1036F0001A881F4BA3FB02131B09C3EB03135900CA
:10370000521A92B23AB3142000F06EF810BD194C60
:103710002270194802F0CCF84FF47A7322781749D6
:10372000174801F058FA164B1B681B6813F0400F3E
:10373000F9D0144802F0BCF8094B00221A80E5E7E2
:10374000114802F0B5F8114802F0B2F8C3E710488A
:1037500002F0AEF8CBE702210E4800F0AEFDD2E752
:10376000000C0020720A00205917B7D11F85EB51B9
:10377000898888885E0A002060240108380B0020B0
:10378000B00A00207424010878240108A02401084C
:10379000B82401080008014010B50446042000F0D8
:1037A000EFFB014B1C6010BD780A002010B44FF0F5
:1037B000E02254690B4B1B6800FB03FC936900215A
:1037C00004E0E01A02441144614509D21A464FF060
:1037D000E0239B699A42FAD0F3D9D21A1144F3E755
:1037E00010BC7047780A002038B50546002404E074
:1037F0004FF47A70FFF7DAFF0134A542F8D838BDEC
:1038000008B50C4B0C4A1A60586000229A60DA60C6
:103810001A619A610C225A61184601F0ADF928B973
:1038200001220649034801F05AFC08BD00F09AF94C
:10383000F6E700BFB00A002000380140040C002069
:1038400008B50C4B0C4A1A60586000229A60DA6086
:103850001A610C2159619A61DA61184601F08CF9FC
:1038600028B901220549034801F039FC08BD00F0E0
:1038700079F9F6E7F40A002000440040080C002023
:1038800030B58DB003683A4A934204D0394A934226
:103890003DD00DB030BD384B9A6942F004029A61B8
:1038A0009A6902F004020092009A9A6942F48042F6
:1038B0009A619A6902F480420192019A9A6942F0EF
:1038C00001029A619B6903F001030493049B4FF486
:1038D000007308930223099301230A9303230B9394
:1038E000264D08A9284600F0C9FB4FF480630893D1
:1038F0000024099408A9284600F0C0FB252000F008
:103900001DFB22462146252000F0E0FAC1E71A4BB4
:10391000DA6942F40032DA61DA6902F400320292C2
:10392000029A9A6942F004029A619B6903F00403C7
:103930000393039B04230493022305930323079318
:103940000E4D04A9284600F099FB08230493002497
:103950000594069404A9284600F090FB22462146CF
:10396000262000F0B3FA262000F0E8FA91E700BF25
:1039700000380140004400400010024000080140AF
:10398000044B1B681B6813F0400FF9D0024B5860C2
:10399000704700BFF40A00200044004070B506469E
:1039A0000D46002305E05C1CE4B2F05CFFF7E8FF85
:1039B0002346AB42F7D370BD114BDA780532D2B251
:1039C0002A2A1AD810B50023194606E00C4C14F820
:1039D00003C06144C9B20133DBB202F1FF3C63456D
:1039E000F4DB074B13F80C308B4201D0002010BDE4
:1039F0000349FDF713F90120F9E70020704700BFE4
:103A00007C0A002010B58EB00446002101912E22C0
:103A100002A801F08DFE2368324A934204D0324A54
:103A2000934230D00EB010BD304A1388B2F9002056
:103A3000002AF7DB13F4804F0ED02D4A12780A2AA1
:103A400003D02A4B00221A80ECE76FEA43436FEA67
:103A50005343264A1380E5E7254A12780D2A0DD0F4
:103A6000C3F30D012348425401339BB21F4A138014
:103A7000C72BD7D9134600221A80D3E743F48043DB
:103A80001A4A1380CEE71C4B1A78511C19701B4B35
:103A900019781B4B99541B785A2B02D0164B0022D5
:103AA0001A70154B1B78022B13D0134B1A78042A6B
:103AB000B8D9134BDB7805339A42B3D1104911487A
:103AC000FDF7ACF8104B01221A700B4B00221A7054
:103AD000A8E70B4B5B785A2BE7D0074B00221A70F4
:103AE000E3E700BF0038014000440040000C002024
:103AF000040C0020380B0020090C0020080C0020CA
:103B00000C0C00207C0A0020190C002008B5084885
:103B100001F0C2F9064801F0C1FA2028FAD10122C9
:103B20000449034801F0DBFA0028F8D108BD00BFC2
:103B3000B00A0020040C002008B5084801F0ACF9D8
:103B4000064801F0ABFA2028FAD1012204490348C3
:103B500001F0C5FA0028F8D108BD00BFF40A002022
:103B6000080C002008B5044801F040FE72B6024877
:103B700001F03CFEFBE700BFD424010800B591B082
:103B80002822002106A801F0D3FD0023019302930F
:103B90000393049305930223069301220A921022B1
:103BA0000B920D934FF460130F9306A800F0A4FB43
:103BB00080B90F23019302210291002303934FF454
:103BC00080620492059301A800F0D6FD20B911B0DF
:103BD0005DF804FBFFF7C6FFFFF7C4FF08B500F070
:103BE0003FF9FFF7CBFFFFF729FAFFF78FFC002023
:103BF000FDF756FC0021064B1868FCF7B7FF0028BC
:103C0000F3D1FFF751FDFFF7C7FAFFF727FCECE709
:103C1000200A002008B50E480E4B03604FF4827353
:103C2000436000238360C360036143614FF400720B
:103C300082610822C2610362436283620A23C36213
:103C400000F076FE00B908BDFFF78CFFFBE700BF70
:103C50001C0C00200030014000B587B00023029307
:103C60000393049305930268124B9A4202D007B063
:103C70005DF804FB03F560439A6942F480529A614F
:103C80009A6902F480520092009A9A6942F0040202
:103C90009A619B6903F004030193019BA0230293A3
:103CA000022303930323059302A9034800F0E6F9D6
:103CB000DDE700BF003001400008014082B00E4B3C
:103CC0009A6942F001029A619A6902F00102009237
:103CD000009ADA6942F08052DA61DB6903F08053BE
:103CE0000193019B054A536823F0E06343F000739E
:103CF000536002B0704700BF001002400000014056
:103D0000FEE7FEE7FEE7FEE7FEE770477047704715
:103D100008B500F0B7F808BD0120704708B501F0FC
:103D200021FA162303604FF0FF3008BD08B54FF0AD
:103D3000FF31FFF7F3FFFEE708B503460B4A1268B1
:103D400042B10A4A106803446A46934206D8074AB9
:103D5000136008BD054A06491160F2E701F002FA56
:103D60000C2303604FF0FF30F3E700BF740C00201A
:103D7000C80C00204FF0FF3070474FF400534B60E9
:103D800000207047012070470020704770470000F6
:103D900008B5054B1860054B186800230222194628
:103DA000806801F09FFD08BD780C00201C000020F9
:103DB00010B5013801280AD814464FF0FF3392B2EB
:103DC0000748006800F007FF40B9204610BD01F029
:103DD000C9F9092303604FF0FF30F7E70520F5E745
:103DE000780C002008B548B94FF0FF33012208488D
:103DF000006800F05CFF40B9012008BD01F0B2F995
:103E0000092303604FF0FF30F7E70520F5E700BF17
:103E1000780C002010B504460E4B18784FF47A73D6
:103E2000B3FBF0F30C4A1068B0FBF3F000F094F829
:103E300068B90F2C01D901200AE0002221464FF079
:103E4000FF3000F043F8054B1C60002000E001202B
:103E500010BD00BF1400002010000020180000203A
:103E600008B5074A136843F010031360032000F0FD
:103E70001BF80020FFF7CEFFFFF720FF002008BD52
:103E800000200240034A1168034B1B780B44136067
:103E9000704700BF7C0C002014000020014B186804
:103EA000704700BF7C0C0020074AD36823F4E0630E
:103EB0001B041B0C000200F4E060034343F0BF63EB
:103EC00043F40033D360704700ED00E000B5194BB8
:103ED000DB68C3F30223C3F1070CBCF1040F28BF56
:103EE0004FF0040C03F1040EBEF1060F18D9033B8A
:103EF0004FF0FF3E0EFA0CFC21EA0C0199400EFA3D
:103F000003F322EA0303194300280BDB0901C9B2BA
:103F100000F1604000F5614080F800135DF804FB9B
:103F20000023E5E700F00F000901C9B2024B195464
:103F3000F4E700BF00ED00E014ED00E0002807DB2F
:103F400000F01F02400901239340024A42F820304A
:103F5000704700BF00E100E00138B0F1807F0BD274
:103F60004FF0E0235861054AF02182F82310002029
:103F7000986107221A6170470120704700ED00E048
:103F8000042806D04FF0E022136923F004031361E4
:103F900070474FF0E022136943F004031361704748
:103FA00090F82130022B06D004238363002380F88D
:103FB0002030012070470268136823F00E0313605D
:103FC0000268136823F001031360036CC16B0122C4
:103FD00002FA03F34B6080F82120002380F82030A0
:103FE0001846704708B590F82130022B03D00423FF
:103FF0008363012008BD0268136823F00E03136079
:104000000268136823F0010313600368194A93429E
:1040100014D0143293421FD0143293421ED0143263
:1040200093421ED0143293421ED01432934202D0D7
:104030004FF0807203E04FF4801200E001220E4B3B
:104040005A60012380F82130002380F82030436B30
:104050006BB198470020CDE71022F0E74FF4807253
:10406000EDE74FF48052EAE74FF48032E7E70020B3
:10407000C0E700BF080002400000024070B582B0F7
:104080000024A446A6E0804DAA4210D007D97F4D57
:10409000AA420CD005F58035AA4208D013E0A5F558
:1040A0008015AA4203D005F57025AA4207D18A6877
:1040B000002A58D0012A51D04361082403E0A5F515
:1040C0008015AA42F3D0BEF1FF0F4ED80646BEF1CE
:1040D000FF0F4CD84FEA8C0233680F25954023EA36
:1040E000050304FA02F2134333604B6813F0805F58
:1040F0006ED0674B9A6942F001029A619B6903F0A6
:1041000001030193019B4FEA9C02951C614B53F8FC
:1041100025600CF003039D000F23AB4026EA030645
:104120005D4B984229D003F58063984200F08E8061
:1041300003F58063984200F08B8003F5806398421A
:1041400019D004231AE0CC68BDE7CC680434BAE780
:10415000CC680834B7E7CC680C34B4E703610824B2
:10416000B1E70024AFE70424ADE7061DAFE7ACF1EB
:1041700008029200B0E7032300E00023AB40334382
:104180000232444D45F822304B6813F4803F61D031
:10419000424A136843EA0E0313604B6813F4003F6E
:1041A0005ED03E4A536843EA0E0353604B6813F4F3
:1041B000801F5BD0394A936843EA0E0393604B68D3
:1041C00013F4001F58D0354AD36843EA0E03D36076
:1041D0000CF1010C0A6832FA0CF353D0012303FAF4
:1041E0000CF302EA030E33EA0202F1D14A68122A02
:1041F0003FF649AF122A3FF666AF01A555F822F007
:10420000AF400008474100085141000863410008E1
:10421000C7400008C7400008C7400008C740000862
:10422000C7400008C7400008C7400008C740000852
:10423000C7400008C7400008C7400008C740000842
:10424000C74000084B41000857410008012395E78B
:10425000022393E7114A136823EA0E0313609CE7D5
:104260000E4A536823EA0E0353609FE70B4A936894
:1042700023EA0E039360A2E7084AD36823EA0E03F9
:10428000D360A5E702B070BD00002210000031101D
:1042900000100240000001400008014000040140FD
:1042A0008368194201D001207047002070470AB18D
:1042B00001617047090401617047C36801EA0302A4
:1042C00021EA030141EA02410161704782B0084BD3
:1042D0001B68084AA2FB03235B0A00FB03F301935C
:1042E00000BF019B5A1E0192002BF9D102B070470A
:1042F00010000020D34D6210002800F0F18170B54D
:1043000082B00446036813F0010F2CD0994B5B6810
:1043100003F00C03042B1DD0964B5B6803F00C03D9
:10432000082B12D06368B3F5803F41D0002B55D1E4
:1043300003F1804303F504331A6822F480321A60D3
:104340001A6822F480221A6037E08A4B5B6813F403
:10435000803FE7D0874B1B6813F4003F03D06368AE
:10436000002B00F0BF81236813F0020F75D0814B42
:104370005B6813F00C0F5FD07E4B5B6803F00C039F
:10438000082B54D02369002B00F08A807A4B01223D
:104390001A60FFF783FD0546764B1B6813F0020F8A
:1043A00075D1FFF77BFD401B0228F5D903209EE164
:1043B000704A136843F480331360636843B3FFF7B4
:1043C0006DFD05466B4B1B6813F4003FCBD1FFF727
:1043D00065FD401B6428F5D9032088E1B3F5A02FC3
:1043E00009D0644B1A6822F480321A601A6822F4E9
:1043F00080221A60E1E703F18043A3F53C331A6899
:1044000042F480221A601A6842F480321A60D4E7BB
:10441000FFF744FD0546574B1B6813F4003FA2D03D
:10442000FFF73CFD401B6428F5D903205FE1514BA9
:104430005B6813F4803FA5D14E4B1B6813F0020F4D
:1044400003D02369012B40F04F814A4A136823F0BF
:10445000F803616943EAC1031360236813F0080F8E
:1044600033D0A369002B5CD0434B0122C3F88024D6
:10447000FFF714FD05463F4B5B6A13F0020F21D195
:10448000FFF70CFD401B0228F5D903202FE1394A24
:10449000136823F0F803616943EAC1031360DCE7A2
:1044A000354B00221A60FFF7F9FC0546314B1B68BB
:1044B00013F0020FD1D0FFF7F1FC401B0228F5D911
:1044C000032014E10120FFF701FF236813F0040F1C
:1044D00000F09680274BDB6913F0805F34D1254BC9
:1044E000DA6942F08052DA61DB6903F080530193AC
:1044F000019B0125214B1B6813F4807F26D0E368C4
:10450000012B3DD0002B53D103F1804303F504333D
:104510001A6A22F001021A621A6A22F004021A626E
:1045200033E0154B0022C3F88024FFF7B7FC0546A3
:10453000104B5B6A13F0020FC7D0FFF7AFFC401BB4
:104540000228F5D90320D2E00025D3E70B4A1368EF
:1045500043F480731360FFF7A1FC0646074B1B680A
:1045600013F4807FCBD1FFF799FC801B6428F5D929
:104570000320BCE0001002400000424200700040F6
:104580005F4A136A43F001031362E36833B3FFF732
:1045900085FC06465A4B1B6A13F0020F2FD1FFF71A
:1045A0007DFC801B41F288339842F3D903209EE0C2
:1045B000052B09D0524B1A6A22F001021A621A6ABC
:1045C00022F004021A62E0E74D4B1A6A42F004023C
:1045D0001A621A6A42F001021A62D6E7FFF75EFC1D
:1045E0000646474B1B6A13F0020F08D0FFF756FC34
:1045F000801B41F288339842F3D9032077E0E5B974
:10460000E369002B72D03E4A526802F00C02082A7D
:1046100056D0022B17D03B4B00221A66FFF73EFC08
:104620000446374B1B6813F0007F47D0FFF736FC7A
:10463000001B0228F5D9032059E0314AD36923F041
:104640008053D361DCE72F4B00221A66FFF726FC6C
:1046500005462B4B1B6813F0007F06D0FFF71EFCAE
:10466000401B0228F5D9032041E0236AB3F5803FBF
:104670001AD023494B6823F47413226A606A0243F8
:1046800013434B601F4B01221A66FFF707FC0446D9
:104690001B4B1B6813F0007F0ED1FFF7FFFB001BC5
:1046A0000228F5D9032022E0154A536823F4003389
:1046B000A1680B435360DCE7002018E0002016E0FF
:1046C000012B16D00E4B5B6803F48031226A9142B5
:1046D00011D103F47013626A93420ED1002006E0F8
:1046E00001207047012002E0012000E0002002B01C
:1046F00070BD0120FBE70120F9E70120F7E700BFCB
:10470000001002400000424286B0174B0FCB0DF163
:10471000180C0CE90F0040F20123ADF80430134BE4
:104720005B6803F00C02082A02D0114806B07047FB
:10473000C3F3834218326A4412F8100C13F4803F1A
:104740000DD00A4B5B68C3F3404318336B4413F836
:10475000143C074A02FB00F0B0FBF3F0E6E7054B20
:1047600003FB00F0E2E700BFFC2401080010024058
:1047700000127A0000093D00002800F0A08070B50A
:104780000D460446524B1B6803F007038B420BD2C5
:104790004F4A136823F007030B431360136803F0B9
:1047A00007038B4240F08D80236813F0020F17D06F
:1047B00013F0040F04D0474A536843F4E063536096
:1047C000236813F0080F04D0424A536843F460533F
:1047D0005360404A536823F0F003A1680B435360D1
:1047E000236813F0010F31D06368012B20D0022B16
:1047F00025D0384A126812F0020F64D035494A6851
:1048000022F0030213434B60FFF748FB0646314B8F
:104810005B6803F00C036268B3EB820F16D0FFF7FE
:104820003DFB801B41F288339842F0D9032045E0DC
:10483000284A126812F4003FE0D101203EE0254AE8
:10484000126812F0007FD9D1012037E0204B1B689D
:1048500003F00703AB420AD91D4A136823F007038C
:104860002B431360136803F00703AB422DD1236879
:1048700013F0040F06D0174A536823F4E063E1688D
:104880000B435360236813F0080F07D0114A536895
:1048900023F46053216943EAC1035360FFF734FFF7
:1048A0000C4B5B68C3F303130B4AD35CD8400B4B30
:1048B00018600B4B1868FFF7ADFA002070BD01209F
:1048C00070470120FAE70120F8E70120F6E700BF72
:1048D0000020024000100240E424010810000020E3
:1048E00018000020014B1868704700BF100000201E
:1048F00008B5FFF7F7FF044B5B68C3F30223034AD5
:10490000D35CD84008BD00BF00100240F424010869
:1049100008B5FFF7E7FF044B5B68C3F3C223034A04
:10492000D35CD84008BD00BF00100240F424010849
:10493000002856D010B50446436A33B94368B3F52E
:10494000827F05D00023C36102E00023036143613D
:104950000023A36294F85130002B3CD0022384F84A
:1049600051302268136823F040031360636803F436
:104970008273A26802F404421343E26802F4006204
:104980001343226902F002021343626902F001023A
:104990001343A26902F400721343E26902F0380281
:1049A0001343226A02F080021343A26A02F4005207
:1049B000216813430B60638B226803F00403536088
:1049C0002268D36923F40063D3610020606501236A
:1049D00084F8513010BD84F850302046FFF73CF980
:1049E000BCE7012070470268D36823F49073D3605A
:1049F0000268536923F001035361036B012B05D057
:104A0000202380F83E300023036370470268D36898
:104A100023F01003D360F3E790F83D30DBB2212B95
:104A200001D0022070478368B3F5805F17D0036A16
:104A30005A1C02621A7803685A60C38C9BB2013B0D
:104A40009BB2C3844BB90268D36823F08003D36060
:104A50000268D36843F04003D360002070470369C5
:104A6000002BE4D1036A1B880268C3F30803536078
:104A7000036A02330362E0E710B504460268136973
:104A800023F44053C1680B431361836802691343E5
:104A900042691A430168CB6823F4B05323F00C0336
:104AA0001343CB600268536923F4407381690B435D
:104AB00053610268134B9A4220D0FFF719FF024658
:104AC00002EB820202EB820263689B00B2FBF3F20C
:104AD0000D48A0FB02314909642303FB11231B018C
:104AE0003233A0FB03235B0903F0F00202EB011257
:104AF00003F00F03216813448B6010BDFFF708FF1C
:104B00000246DDE7003801401F85EB512DE9F843EF
:104B100005460F4616469946DDF820802C68246825
:104B200037EA04030CBF4FF0010C4FF0000CB44502
:104B30001FD1B8F1FF3FF1D0B8F1000F05D0FFF75A
:104B4000ADF9A0EB09004045E8D92A68D36823F401
:104B5000D073D3602A68536923F001035361202383
:104B600085F83D3085F83E30002385F83C30032041
:104B700000E00020BDE8F88358B310B5044690F873
:104B80003D300BB3242384F83D302268D36823F4EE
:104B90000053D3602046FFF76FFF2268136923F4A8
:104BA000904313612268536923F02A0353612268FA
:104BB000D36843F40053D36000202064202384F89A
:104BC0003D3084F83E3010BD80F83C30FEF758FE92
:104BD000D8E7012070472DE9F04182B01E4690F8D9
:104BE0003D30DBB2202B54D104460D4690460029BF
:104BF00053D0002A53D090F83C30012B51D00123E0
:104C000080F83C3000230364212380F83D30FFF717
:104C100045F90746A4F82480A4F82680A368B3F5D4
:104C2000805F05D04FF00008002384F83C3012E08C
:104C3000236913B14FF00008F6E7A8460025F3E713
:104C400038F8023B2268C3F308035360E28C92B247
:104C5000013A92B2E284E38C9BB273B100963B4678
:104C6000002280212046FFF751FFE0B9002DE7D058
:104C700015F8012B23685A60E8E700963B460022AE
:104C800040212046FFF742FF78B9202384F83D30C9
:104C900000E0022002B0BDE8F0810120FAE7012027
:104CA000F8E70220F6E70320F4E70320F2E72DE916
:104CB000F04182B01E4690F83E30DBB2202B5CD132
:104CC00004460D46904600295BD0002A5BD090F840
:104CD0003C30012B59D0012380F83C300023036481
:104CE000222280F83E200363FFF7D8F80746A4F895
:104CF0002C80A4F82E80A368B3F5805F05D04FF018
:104D00000008002384F83C3017E0236913B14FF00A
:104D10000008F6E7A8460025F3E723685B68C3F3BD
:104D2000080328F8023B03E023685B682B70013519
:104D3000E28D92B2013A92B2E285E38D9BB2BBB1B1
:104D400000963B46002220212046FFF7DFFEF0B907
:104D5000002DE2D0A368B3F5805FE5D013B92369D5
:104D6000002BE1D023685B6803F07F032B70DEE744
:104D7000202384F83E30002000E0022002B0BDE88D
:104D8000F0810120FAE70120F8E70220F6E703208E
:104D9000F4E7704708B50168CA6822F04002CA60AB
:104DA000202280F83D20FFF7F4FF002008BD704767
:104DB00008B5406A0023C385C384FFF7F8FF08BD28
:104DC000704790F83E30DBB2222B60D18368B3F598
:104DD000805F46D0826AB3F5805F04D0002B4DD14E
:104DE0000369002B4AD103685B681370836A01333F
:104DF0008362C38D9BB2013B9BB2C385002B48D11C
:104E000000B583B00268D36823F02003D360026842
:104E1000D36823F48073D3600268536923F00103DD
:104E20005361202380F83E30036B012B2CD10023EB
:104E300003630268D36823F01003D36003681A6821
:104E400012F0100F06D0002201921A6801925B68DE
:104E50000193019B818DFFF7B3FF002003B05DF844
:104E600004FB0269002AB5D1826A03685B68C3F358
:104E700008031380836A02338362BAE703685B68BE
:104E800003F07F031370B1E7FEF7BCFDE5E70220F6
:104E9000704700207047000030B583B004460268B8
:104EA0001368D068516913F00F0505D113F0200F76
:104EB00002D010F0200F19D12DB111F0010119D13C
:104EC00010F4907F16D1216B012975D013F0800F5B
:104ED00003D010F0800F40F0D78013F0400F03D0C4
:104EE00010F0400F40F0D48003B030BD2046FFF7F3
:104EF00068FFF9E713F0010F06D010F4807F03D0AC
:104F0000226C42F00102226413F0040F04D019B1A4
:104F1000226C42F00202226413F0020F04D019B195
:104F2000226C42F00402226413F0080F07D010F044
:104F3000200F00D119B1226C42F008022264226CC9
:104F4000002AD1D013F0200F02D010F0200F21D171
:104F500023685B6903F04003226C12F0080F00D154
:104F600023B32046FFF73FFD23685A6912F0400F34
:104F700018D05A6922F040025A61A36B73B1464AB5
:104F80005A63A06BFFF72EF80028ADD0A06B436BDF
:104F90009847A9E72046FFF714FFD9E72046FFF717
:104FA00006FFA1E72046FFF702FF9DE72046FFF737
:104FB000FEFE0023236497E713F0100F86D010F055
:104FC000100F83D00023019313680193536801935A
:104FD000019B536913F0400F32D0A16B0B685B68E3
:104FE0009BB2002B80D0A08D98427FF67DAFE385E9
:104FF0008B69202B08D1A18DE38D9BB2C91A89B290
:105000002046FFF7DDFE6FE7D36823F48073D3609B
:105010002268536923F0010353612268536923F026
:1050200040035361202384F83E3000232363226829
:10503000D36823F01003D360A06BFEF7B1FFDAE76B
:10504000A18DE38D9BB2C91A89B2E38D9BB2002B6F
:105050003FF44AAF00293FF447AFD36823F490737D
:10506000D3602268536923F001035361202384F83D
:105070003E30002323632268D36823F01003D360FB
:105080002046FFF79DFE2FE72046FFF7C5FC2BE7E4
:105090002046FFF77FFE27E7B14D000890F83D302E
:1050A00090F83E0018437047034681628285C285AE
:1050B00000201864222283F83E2083F83C001968FF
:1050C000CA6842F48072CA6019684A6942F00102F3
:1050D0004A611A68D36843F02003D360704708B56B
:1050E00090F83E30DBB2202B0DD171B17AB190F83F
:1050F0003C30012B0DD0012380F83C3000230363AA
:10510000FFF7D2FF00E0022008BD0120FCE70120EC
:10511000FAE70220F8E700000C480D490D4A002389
:1051200002E0D458C4500433C4188C42F9D30A4A5C
:105130000A4C002301E013600432A242FBD3FEF7C5
:1051400025FE00F015F8FEF749FD7047000000202D
:10515000C80900203C290108C8090020C80C00200B
:10516000FEE70000014B1868704700BF1C000020DC
:1051700070B50D4E0D4D761BB61006D0002455F8B7
:10518000043B01349847A642F9D1094E094D08F075
:10519000AFF8761BB61006D0002455F8043B013456
:1051A0009847A642F9D170BD30290108302901087D
:1051B0003829010830290108024B0146186800F01F
:1051C0000BB800BF1C000020024B0146186805F018
:1051D000EBBA00BF1C0000202DE9F04F01F10B05D8
:1051E000162D064683B025D8102900F2B88000F0AD
:1051F000F1FA102518224FF0020CB54F3A445368CB
:10520000A2F108018B4200F0B7805A68D96822F0F9
:1052100003021A449C683046E1608C60516803F1D7
:10522000080441F00101516000F0DAFA204603B0B1
:10523000BDE8F08F35F0070500F19180A94200F23A
:105240008E8000F0C7FAB5F5FC7FC0F094816B0A40
:1052500000F08C80042B00F26A81AB0903F1390C59
:1052600003F138044FEACC00994F384443680838BA
:10527000984206D10CE0002980F22681DB68984232
:1052800006D05A6822F00302511B0F29F3DDA44611
:105290003C69DFF840E274457AD0626822F003028C
:1052A000531B0F2B00F37681002BC7E904EE80F22D
:1052B0006781B2F5007F80F019810121D30852097E
:1052C0000B4491407A6857F833000A4307EBC30157
:1052D0000839A060E1607A6047F83340C46001217A
:1052E0004FEAAC039940914259D8114206D12CF0B3
:1052F000030C490011420CF1040CFAD007EBCC0965
:1053000048466446D0F80C80404508D11CE1002B8B
:1053100080F22181D8F80C80404500F01581D8F842
:10532000042022F00302531B0F2BF0DD08EB0501D4
:1053300045F00105C8F804503046D8E90264F4602D
:10534000A66043F00104C7E904114C60C1E902EE14
:1053500048F8023000F044FA08F1080402E00C2397
:1053600000243360204603B0BDE8F08F4FF4007096
:105370004FF0400C3F2477E7D3689A4208BF0CF106
:10538000020C7FF442AF3C69DFF848E1744584D1F8
:1053900001217A684FEAAC0399409142A5D9BC68D3
:1053A000636823F003094D4503D8A9EB05030F2BD0
:1053B0007ADCDFF824B1494BDBF800201B680132AE
:1053C0002B4404EB090A00F02F8103F580530F33BF
:1053D00023F47F6828F00F084146304600F070FA49
:1053E000411C024600F0EF80824500F2EA803C4B0F
:1053F000196841440846196000F04981DBF8001043
:10540000019301311BBFA2EB0A0A5044CBF80020E4
:10541000186012F0070B00F01181CBF108010A446B
:10542000CBF5805190440831A1EB0801C1F30B0A80
:1054300051463046009200F043FA421CDDE9002359
:1054400000F04B81801A00EB0A08196848F001004F
:105450005144BC42BA601960506000F02481B9F137
:105460000F0F40F222814FF0050E6068A9F10C0C7D
:105470002CF0070C00F0010040EA0C006060BCF169
:105480000F0F04EB0C00C0E901EE00F22E81144670
:105490005068144B1A688A4238BF1960124B1A6858
:1054A0008A4238BF196090E0621943F0010345F069
:1054B000010565603046BA600834536000F090F929
:1054C000204603B0BDE8F08FD9681A44A2E600BFB9
:1054D000480400205004002050080020B00C002098
:1054E000800C0020A80C0020AC0C0020B2F5206F2E
:1054F0004FEA52235FD3142B00F2B18003F15C0119
:10550000C9005B33781879580838884200F08F80DA
:105510004B6823F00303934202D989688842F7D18C
:10552000C8687A68C4E902108460CC60D7E6142B9E
:1055300059D9542B00F29B802B0B03F16F0C03F114
:105540006E044FEACC008FE60134A30700F1080097
:105550007FF4D8AE53E0444642445368D8F80C1068
:1055600043F00103536054F8083F3046D9608B6024
:1055700000F036F9F6E64FEAD50C05F108023CE6F4
:1055800022445368304643F00103536000F028F989
:105590000834E7E6611945F00105656043F001054F
:1055A000C7E904113046C1E902EE4D60A35000F096
:1055B00017F90834D6E6930903F13901C9003833E5
:1055C000A0E7BC425ED0BC68606820F00308454597
:1055D000A8EB050302D80F2B3FF766AF304600F06B
:1055E000FFF80024BEE603F15C0C03F15B044FEA14
:1055F000CC0039E659F808394B4540F095801CF04D
:10560000030F0CF1FF3CF5D17B6823EA01037B60BB
:10561000490099423FF6C3AE11B9C0E649000434CF
:105620001942FBD0A44669E603F11008D4E6012232
:105630009B109A407B681A437A6073E702EB08017B
:105640004942C1F30B0A51463046009200F038F946
:10565000431CDDE900237FF4F5AEDA46F5E6542B72
:1056600026D8130B03F16F01C9006E334AE7B3F577
:10567000AA7F26D8EB0B03F1780C03F177044FEAED
:10568000CC00F1E5294B186840441860B6E6CAF32F
:105690000B0CBCF1000F7FF4B1AEBC68C84448F0FD
:1056A00001006060F5E61446F3E60123536095E7D8
:1056B000B3F5AA7F24D8D30B03F17801C90077335F
:1056C00020E740F25452934224D8AB0C03F17D0CF6
:1056D00003F17C044FEACC00C6E5ABF1080BD844DB
:1056E0004FF0000AA8EB0208AFE604F108013046CB
:1056F000009305F059F8BC68009B60681968C8E61B
:1057000040F254518B420BD8930C03F17D01C90038
:105710007C33F7E64FF47E704FF07F0C7E24A3E5D8
:105720004FF47E717E23EDE67B6871E7800C0020EC
:10573000830730B548D0541E002A3FD00346CAB272
:1057400001E0013C3AD303F8012B9D07F9D1032C6A
:105750002DD9CDB245EA05250F2C45EA054536D9A8
:10576000A4F1100222F00F0C03F1200EE6444FEAE0
:10577000121C03F1100242E9045542E902551032AD
:105780007245F8D10CF1010214F00C0F03EB021278
:1057900004F00F0C13D0ACF1040323F00303043323
:1057A000134442F8045B9342FBD10CF003042CB188
:1057B000CAB21C4403F8012B9C42FBD130BD6446A5
:1057C0001346002CF4D1F9E703461446BFE71A4606
:1057D000A446E0E7014805F08BBA00BFB80C0020F2
:1057E000014805F087BA00BFB80C00200FB400B51F
:1057F000074A83B004AB106853F8042B8168019307
:1058000001F0AEFF03B05DF804EB04B0704700BFD9
:105810001C00002030B5054689B008460C4600F053
:105820001FFA01210223214A04940692AA6B04ACB8
:105830000590084401940791AC680293039022B349
:10584000636E13F0010FB4F90C309AB201D19805D0
:1058500025D5910406D4626E43F4005322F400521D
:10586000A3816266284601AA214605F09DF8636E71
:10587000002814BF4FF0FF350A25DA0702D4A389A8
:105880009B0506D5284609B030BD284604F094FE95
:10589000D6E7A06D05F02EFA284609B030BDA06D00
:1058A00005F026FAB4F90C309AB2D2E718260108AE
:1058B000024B01461868FFF7ADBF00BF1C00002077
:1058C000002238B5064D044608462A60FEF734FA31
:1058D000431C00D038BD2B68002BFBD0236038BDA3
:1058E000C40C00202DE9F043694C0E46D4F800802A
:1058F000174604461D4683B0B8F1000F03D0D8F810
:105900003830002B77D0022F05D0012F00F2AC8069
:10591000002DC0F2A980636EDA0752D521464046B9
:1059200004F016FE216B41B104F14003994202D00C
:10593000404604F039FF002323630023B4F90CC070
:10594000A3611CF0800F636064D12CF44A6C2CF0CE
:10595000030C022FA4F80CC06AD001AB21464046CC
:105960006A4605F039FAA3891843A081002D2FD08B
:10597000002E2ED0D8F83830002B38D0009BC4E948
:105980000465AB42B4F90C3026601CBF43F40063DD
:10599000A381012F04BF43F00103A3819AB213F046
:1059A00008032CD0D1075DD500216D42A561656E3D
:1059B000A16015F0010527D00025284603B0BDE8F9
:1059C000F083A3899B05A9D4A06D05F091F9A5E703
:1059D000009D2846FFF7F0FB0646002847D0A38924
:1059E00043F08003A381D8F83830002BC6D140465D
:1059F00004F0E2FDC2E7404604F0DEFD83E7A36069
:105A0000656E15F00105D7D1930524D5284603B05E
:105A1000BDE8F0834046216904F0C6FEB4F90CC02D
:105A2000022F2CF44A6C2CF0030CA4F80CC094D177
:105A300000250021012204F1430323602361636EEA
:105A40004CF0020CD807A4F80CC0A1606261DDD450
:105A50001CF4007FDAD1A06D05F04CF9284603B0A4
:105A6000BDE8F083A560CBE74FF0FF35CEE7DDF86A
:105A70000090A94504D04846FFF79EFB064620B992
:105A80004FF0FF35B4F90CC0D3E74D46A7E700BF90
:105A90001C0000200EB430B504466FF000459CB0E9
:105AA0000B4A1FAB0B49059253F8042B086802A957
:105AB000CDE9013407950495069400F0FFF8002223
:105AC000029B1A701CB0BDE8304003B0704700BFA5
:105AD0000802FFFF1C00002011F0FF01034644D024
